:100000003C050020A5200000152100001D21000056
:10001000252100002521000025210000000000000E
:10002000000000000000000000000000252100008A
:1000300025210000000000002521000025210000EE
:100040002521000025210000252100002521000098
:100050002521000025210000252100002521000088
:10006000252100000000000000000000000000004A
:1000700000000000000000002521000025210000F4
:100080002521000025210000252100002D21000050
:100090002521000025210000252100002521000048
:1000A000252100002521000025210000000000007E
:1000B000252100002521000025210000000000006E
:1000C000000000002521000025210000252100005E
:1000D000252100002521000000000000252100004E
:1000E00000000000000000000000000025210000CA
:1000F000252100000000000025210000252100002E
:1001000025210000252100002521000025210000D7
:1001100000000000000000000000000000000000DF
:1001200000000000252100002521000025210000FD
:1001300025210000252100002521000025210000A7
:1001400000000000000000000000000000000000AF
:100150002521000025210000252100002521000087
:10016000000000000000000000000000000000008F
:10017000000000000000000000000000000000007F
:10018000000000000000000000000000000000006F
:10019000000000000000000000000000000000005F
:1001A000000000000000000000000000000000004F
:1001B0002521000025210000252100002521000027
:1001C0002521000025210000252100002521000017
:1001D0002521000025210000252100002521000007
:1001E000252100002521000025210000000000003D
:1001F00000000000000000000000000000000000FF
:1002000000000000000000000000000000000000EE
:1002100000000000000000000000000000000000DE
:1002200000000000000000000000000000000000CE
:1002300000000000000000000000000000000000BE
:1002400000000000000000000000000000000000AE
:10025000000000000000000000000000000000009E
:1002600000000000000000000000000010B5054C78
:10027000237833B9044B13B10448AFF30080012352
:10028000237010BD1003002000000000ECEB030001
:10029000084B10B51BB108490848AFF30080084867
:1002A000036803B910BD074B002BFBD0BDE810401D
:1002B000184700BF0000000014030020ECEB03000F
:1002C0000C0300200000000080B582B000AF786011
:1002D0000B46FB707B6800221A707B6800225A7004
:1002E0007B6800229A707B6897F9032011461846B4
:1002F00000F0C4FB7B6818460837BD4680BD00BFD0
:1003000080B582B000AF78607B68184602F0E0FBF1
:10031000034618460837BD4680BD00BF80B582B091
:1003200000AF78600B46FB707B6800221A707B6818
:1003300000225A707B6800229A707B6897F903202C
:100340001146184600F0C0FB7B6818460837BD46CA
:1003500080BD00BF80B582B000AF786039607B6837
:100360003968184601F0C2FF00BF0837BD4680BD9E
:1003700080B582B000AF78607B68184602F0A8FBB9
:10038000034618460837BD4680BD00BF80B582B021
:1003900000AF78607B68DB68002B07D07B68DB6888
:1003A0007A68926879681046984700E000BF08377D
:1003B000BD4680BD80B582B000AF786039603B68D3
:1003C0009A687B689A607B6839680822184605F04D
:1003D000DFFB3B68DA687B68DA6000BF0837BD4640
:1003E00080BD00BF80B582B000AF7860064A7B68F0
:1003F0001A600023002B02D0786803F0E3FC7B68CE
:1004000018460837BD4680BD706B000080B582B0CD
:1004100000AF78607868FFF7E5FF786803F0D2FCFA
:100420007B6818460837BD4680BD00BF80B582B0E6
:1004300000AF78600B46FB701346BB707B6897F982
:10044000022097F90310184600F046F8034A7B682B
:100450001A607B6818460837BD4680BD386B0000BF
:1004600080B483B000AF786000BF0C37BD465DF844
:10047000047B704780B483B000AF786000BF0C3756
:10048000BD465DF8047B704780B582B000AF7860F0
:10049000084A7B681A607B681846FFF7A3FF0023B1
:1004A000002B02D0786803F08DFC7B681846083773
:1004B000BD4680BD386B000080B582B000AF78606B
:1004C0007868FFF7E1FF786803F07CFC7B681846EA
:1004D0000837BD4680BD00BFB0B582B000AF7860C0
:1004E0000B46FB701346BB70174A7B681A607B682B
:1004F000043300221A605A609A607B68103301242A
:100500001D46B4F1FF3F06D00021284600F080F8D8
:100510001035013CF5E77B684FF4E1321A637B68E4
:10052000043397F9022097F90310184602F0BEFD34
:100530007B6804337A680549184602F033FF7B680C
:1005400018460837BD46B0BD706B0000C1050000FD
:1005500080B584B000AFF860B9601346FB71FB68EA
:100560001B681B68F868984700F0B8F9B86800F095
:100570005DF80346002B10D0FB7901331B01FA68AC
:100580001344B9681846FFF715FFFB680433F9797F
:100590000122184602F072FE06E0FB680433F97986
:1005A0000022184602F06AFE00F0D4F9FB681B68CE
:1005B00004331B68F868984700BF1037BD4680BDFC
:1005C00080B584B000AF78600B46FB707B68FB6041
:1005D000FB7801331B01FA6813441846FFF7D6FE77
:1005E00000BF1037BD4680BD80B483B000AF7860D7
:1005F00000BF0C37BD465DF8047B704780B483B004
:1006000000AF786000BF0C37BD465DF8047B7047D3
:1006100080B582B000AF786039603968786800F0E2
:1006200017F87B6818460837BD4680BD80B483B094
:1006300000AF78607B68DB68002B14BF01230023C8
:10064000DBB218460C37BD465DF8047B704700BF2F
:1006500080B582B000AF786039607B68394604228B
:10066000184605F095FA3B68002B01D0044A00E0DB
:1006700000227B68DA6000BF0837BD4680BD00BF3E
:100680008506000080B582B000AF786039603B68B5
:100690001B6898470837BD4680BD00BF80B582B053
:1006A00000AF78607B6800221A607B6800225A6085
:1006B0007B6800229A6000F0D5FB02467B68DA6016
:1006C000786800F069F87B6818460837BD4680BD39
:1006D00080B582B000AF786000F000F97B681B68DD
:1006E000002B0AD17B68DB68184600F0ADFB0246A0
:1006F0007B685A607B6801221A6000F02BF900BF0A
:100700000837BD4680BD00BF90B585B000AF7860AA
:1007100000F0E4F87B689C68786800F01FF80346F6
:100720002344FB6000F016F9FB6818461437BD46F9
:1007300090BD00BF80B582B000AF78607868FFF7E9
:10074000E3FF0346044A82FB03129211DB17D31A1C
:1007500018460837BD4680BDD34D621080B584B0C1
:1007600000AF786000F0BAF80023FB607B681B687C
:10077000002B09D07B68DB68184600F065FB024659
:100780007B685B68D31AFB6000F0E4F8FB681846EE
:100790001037BD4680BD00BF80B582B000AF786025
:1007A00000F09CF87B68DB68184600F04DFB0246C1
:1007B0007B685A607B6800229A6000F0CBF800BF2B
:1007C0000837BD4680BD00BF80B584B000AFF8607B
:1007D000B9607A6000F082F87B68BA68F96804480A
:1007E00000F014F800F006F800BF1037BD4680BDD9
:1007F0009C6B000080B500AF00F070F8962000F010
:100800005BFB962000F058FBF8E700BF0FB480B503
:1008100082B000AF07F114037B607968386900F09B
:1008200007F800BF0837BD46BDE8804004B07047F8
:1008300080B5A4B000AF7860396000F04FF807F1E0
:1008400008033A687968184605F07AFEC7F8880008
:10085000D7F88830002B22DD144B1B68002B04D105
:1008600000220121124802F021FC0023C7F88C303D
:100870000FE007F10802D7F88C30134493F90030E9
:1008800019460B4802F0BEFDD7F88C300133C7F88B
:100890008C30D7F88C20D7F888309A42E9DB00F00A
:1008A00059F800BF9037BD4680BD00BF400500200D
:1008B000A405002080B483B000AFEFF310837B6009
:1008C0007B6803F00103002B0CBF01230023DBB284
:1008D00018460C37BD465DF8047B704780B582B082
:1008E00000AFFFF7E7FF0346002B14BF01230023EF
:1008F000DBB283F00103DBB2FB71FB7903F0010390
:10090000FB7172B60F4B1B68002B02D10E4AFB79AC
:1009100013700C4B1B68002B0AD0FB7983F001038A
:10092000DBB2002B04D0362208490948FFF74CFF00
:10093000044B1B680133034A136000BF0837BD46F0
:1009400080BD00BF2C03002030030020D06B0000CE
:10095000E86B000080B582B000AF1A4B1B68002B1B
:100960002CD0FFF7A7FF0346002B14BF0123002361
:10097000DBB283F00103DBB2FB71FB7903F001030F
:10098000FB71FB7983F00103DBB2002B04D047221B
:100990000D490E48FFF718FF0A4B1B68013B094A37
:1009A0001360084B1B68002B08D1094B1B78DBB286
:1009B00083F00103DBB2002B00D062B600BF083722
:1009C000BD4680BD2C030020D06B0000E86B00000A
:1009D000300300200FB480B582B000AF07F11403DC
:1009E0007B6079683869FFF723FF012000F0B4F9D4
:1009F00080B582B000AF78600B46FB701346BB70C9
:100A000097F903301946786801F0F6FB97F903303F
:100A1000B3F1FF3F08D00021786801F039FDBB78C1
:100A20001946786801F07CFE00BF0837BD4680BDDE
:100A300080B584B000AFF8607B600B46FB72134654
:100A4000BB7297F90B301946F86801F0D5FB97F99E
:100A50000B30B3F1FF3F0CD07968F86801F046FC29
:100A60000121F86801F014FDBB7A1946F86801F01D
:100A700057FE00BF1037BD4680BD00BF80B582B0B5
:100A800000AF78600B46FB7097F9033005221946DA
:100A9000786800F005F800BF0837BD4680BD00BF8C
:100AA00080B582B000AF78600B46FB701346BB7018
:100AB000BA7897F9033019467868FFF799FF00BFB5
:100AC0000837BD4680BD00BF80B582B000AF7860FA
:100AD0000B46FB7097F9033000221946786800F046
:100AE00005F800BF0837BD4680BD00BF80B584B0A3
:100AF00000AFF8600B467A60FB7297F90B107B68C9
:100B00000222F868FFF794FF00BF1037BD4680BD92
:100B100080B500AF054B1B68002B05D100220121D9
:100B2000034802F0C3FA00E000BF80BD400500208A
:100B3000A405002080B584B000AF78607B68022BEC
:100B400001DC002318E07B68033B0D4A52F8233098
:100B5000FB607B68033B0A4A002142F82310FB68D4
:100B6000002B02D14FF0FF3306E0FB681B68043313
:100B70001B68F8689847034618461037BD4680BD85
:100B80003403002080B588B000AFF860B9607A60A7
:100B90003B60FB68022B1ADC1A4B1B68002B01D14F
:100BA000FFF7B6FF0023BB61BA697B689A420BD29C
:100BB000BA68BB6913441B781946134802F022FC3B
:100BC000BB690133BB61EFE77B68FB6114E0FB6845
:100BD000033B0E4A52F823307B617B69002B02D124
:100BE0004FF0FF3309E07B691B681B687A68B968BE
:100BF000786998470346FB61FB6918462037BD4674
:100C000080BD00BF40050020A40500203403002063
:100C100080B586B000AFF860B9607A603B60FB6871
:100C2000022B0FDC154B1B68002B01D1FFF770FF67
:100C3000134802F0D1FB0346DAB2BB681A700123F5
:100C40007B6115E0FB68033B0E4A52F823303B61A1
:100C50003B69002B02D14FF0FF330AE03B691B6870
:100C600008331B687A68B9683869984703467B611E
:100C70007B6918461837BD4680BD00BF400500207F
:100C8000A40500203403002080B584B000AF786054
:100C90007B68022B01DC012312E07B68033B0A4ADC
:100CA00052F82330FB60FB68002B02D14FF0FF337A
:100CB00006E0FB681B680C331B68F868984703461E
:100CC00018461037BD4680BD3403002080B586B07D
:100CD00000AFF860B9607A60FB68022B01DC00238A
:100CE00014E0FB68033B0B4A52F823307B617B69BD
:100CF000002B02D14FF0FF3308E07B691B681033F3
:100D00001B687A68B96878699847034618461837A7
:100D1000BD4680BD3403002080B582B000AF78604E
:100D200039607B68012B05D07B68022B02D07B6881
:100D3000002B05D13B684FF400525A60002306E0B7
:100D400004F0E0FC0246092313604FF0FF3318461D
:100D50000837BD4680BD00BF80B582B000AF786067
:100D60007B68002B01D0FFF745FDFEE780B483B020
:100D700000AF786000BF0C37BD465DF8047B70475C
:100D800080B483B000AF786000BF0C37BD465DF81B
:100D9000047B704780B582B000AF78607868FFF759
:100DA000E5FF00BF0837BD4680BD00BF80B582B0FB
:100DB00000AF78607868FFF7E3FF00BF0837BD46F3
:100DC00080BD00BF90B585B000AF78607B681B68C0
:100DD000DB6898477B685B685B68002B04D17B68A5
:100DE0001B689B6898472CE07B685B685B681C68A5
:100DF0007B681B685B6898470346E31A002B17DC87
:100E00007B685B685B68FB607B685B687A685268DC
:100E1000526892685A607B685B681B68002BD9D067
:100E20007B685B681B68FA68526810469847D1E790
:100E30007B681B681B697A685268526812681046A2
:100E400098471437BD4690BD80B582B000AF78603A
:100E50007B681B685B689847034618460837BD46A1
:100E600080BD00BF80B400AF024B1846BD465DF8A0
:100E7000047B7047106C000080B500AF0248FFF79C
:100E8000A1FF00BF80BD00BF106C000080B582B024
:100E900000AF7860D7ED017A9FED067A67EE877A2A
:100EA000FDEEE77A17EE900A00F016F800BF08375B
:100EB000BD4680BD0024744980B582B000AF786023
:100EC0007B684FF47A7202FB03F3184600F004F8D3
:100ED00000BF0837BD4680BD80B584B000AF7860E4
:100EE00002F020FFF86000BF02F01CFF0246FB6822
:100EF000D21A7B689A42F7D300BF1037BD4680BD37
:100F000080B588B002AFF8607B600B46FB72134679
:100F1000BB72FB6897F90A2097F90B101846FFF788
:100F200085FA1F4AFB681A60FB68343379681846F3
:100F300000F004FBFB6803F144003B6A7A6802FBA3
:100F400003F3194600F0FAFAF868164B3B610023E8
:100F50007B610023009307F110030CCBF96800F0CC
:100F60000BFAFB687A685A65FB683A6A9A6500BFB3
:100F7000FB6811E0FB684433184600F0F9FAFFE71C
:100F8000FB683433184600F0F3FAFFE7FB681846B5
:100F9000FFF77AFA03F084FA18461837BD4680BD89
:100FA000906C00004512000090B58BB000AF7860E7
:100FB0001C4A7B681A607C6807F108030021184608
:100FC000FFF726FB07F10803002219462046FFF72A
:100FD000BFFA7C6807F1180300211846FFF718FBD9
:100FE00007F11803012219462046FFF7B1FA00BFA6
:100FF0007B684433184600F0BBFA7B6834331846EC
:1010000000F0B6FA7B681846FFF73EFA0023002B83
:1010100002D0786802F0D6FE7B6818462C37BD46B1
:1010200090BD00BF906C000080B582B000AF7860CA
:101030007868FFF7B9FF786802F0C4FE7B6818464D
:101040000837BD4680BD00BF80B582B000AF786074
:101050007B683433184600F0ABF90346184608376E
:10106000BD4680BD80B483B000AF786001231846D0
:101070000C37BD465DF8047B704700BF80B582B079
:1010800000AF78607B683433184600F0A5F903465A
:1010900018460837BD4680BD80B582B000AF786085
:1010A00039607B6844333A68D2B21146184600F082
:1010B0009FF9786800F02AF93B6818460837BD4662
:1010C00080BD00BF80B584B000AF786039603B68F8
:1010D000002B21D03B68FB60FB6893F90030002BAC
:1010E0000CD07B6803F14400FB685A1CFA6093F94A
:1010F0000030DBB2194600F07BF9EDE77B68443342
:101100000A21184600F074F9786800F0FFF8FA68D0
:101110003B68D31A013300E0002318461037BD4660
:1011200080BD00BF0EB42DE9F04189B002AF7860F8
:10113000684680467868406D01387861054601351B
:101140004FF00006F20042EA5572E9000246013211
:1011500011464FF00002D40044EA5174CB0003461C
:1011600001330733DB08DB00ADEB030D02AB0033CB
:101170003B6138697B685B6D1A46002104F013FD02
:101180000023FB6007F13803BB603B69BA68796BE9
:10119000184605F0D5F9F8607B685A6DFB689A42ED
:1011A0000BD27B685A6DFB68009313465E220B4995
:1011B0000B48FFF70FFC002308E03B69FA6819466B
:1011C000786800F00FF80346FB60FB68C5461846D8
:1011D0001C37BD46BDE8F04103B07047186C0000F5
:1011E0004C6C000080B586B000AFF860B9607A60E2
:1011F000BB68002B20D07B68002B1DD0BB687B61B7
:101200007A697B6813443B617A693B699A420CD0E6
:10121000FB6803F144007B695A1C7A6193F9003042
:10122000DBB2194600F0E4F8EEE7F86800F06EF87B
:101230007A69BB68D31A00E0002318461837BD4608
:1012400080BD00BF90B583B000AF78607B68043389
:10125000184602F0EDF80346002B14BF01230023CB
:10126000DBB2002B0ED07B6803F134047B680433BF
:10127000184602F0B1F80346DBB21946204600F0EA
:10128000B7F800BF00BF0C37BD4690BD90B587B022
:1012900000AF78607B680433184602F0E7F8034635
:1012A000002B14BF01230023DBB2002B29D07B6865
:1012B0004433184600F07CF80346002B14BF01238A
:1012C0000023DBB2002B0CD07B681C1D7B684433F1
:1012D000184600F09DF803461946204602F092F8A1
:1012E000D8E77C6807F1080300211846FFF790F95A
:1012F00007F10803012219462046FFF729F900BF2C
:1013000000BF00BF1C37BD4690BD00BF90B58BB07D
:1013100002AF78607B680433184602F0A7F80346F2
:10132000002B14BF01230023DBB2002B1ED07C68EE
:1013300007F1080300211846FFF76AF907F10803CF
:10134000012219462046FFF703F97868FFF79EFF50
:101350007868084BBB610023FB610123009307F110
:1013600018030CCB796800F007F800BF00BF2437E2
:10137000BD4690BD8D12000080B588B000AFF8600A
:10138000B960394681E80C0007F110003B460CCBF0
:10139000B96800F05FF897F8282007F110031946A4
:1013A000F868FFF7D5F800BF2037BD4680BD00BF05
:1013B00080B483B000AF78607B685A687B689B68B4
:1013C0009A4214BF01230023DBB218460C37BD46F6
:1013D0005DF8047B704700BF80B582B000AF7860D5
:1013E000786800F015F8034618460837BD4680BDFA
:1013F00080B582B000AF78600B46FB70FB78194671
:10140000786800F03BF87B6818460837BD4680BD19
:1014100080B485B000AF78607B681A687B689B6891
:10142000581C7968886013441B78FB737B689B6841
:101430007A68D268013AB3FBF2F102FB01F29A1A20
:101440007B689A60FB7B18461437BD465DF8047BC9
:10145000704700BF80B584B000AFF860B96039460E
:1014600081E80C003B460CCBB968F86800F028F81E
:10147000FB6818461037BD4680BD00BF80B483B0FE
:1014800000AF78600B46FB707B681A687B685B680E
:10149000581C796848601344FA781A707B685B6856
:1014A0007A68D268013AB3FBF2F102FB01F29A1AB0
:1014B0007B685A6000BF0C37BD465DF8047B7047FF
:1014C00080B584B000AFF860B960394681E80C009F
:1014D000FB68BA689A60FB6839460822184604F02F
:1014E00057FBFB68024ADA6000BF1037BD4680BD7B
:1014F000F514000080B582B000AF786039603B68B9
:101500005B6803F00103002B02D13B681B680AE013
:101510003B685B685B101A467B6813441B683A683B
:10152000126813441B683A685268521011467A6870
:101530000A44104698470837BD4680BD80B582B042
:1015400000AF786039603B68184602F06AFF0346D6
:101550001A467B681A607B683A68DA60786800F03F
:101560001BF800BF7B6818460837BD4680BD00BF2A
:1015700080B582B000AF78607B681B68002B04D018
:101580007B681B68184602F01BFC00BF7B6818468E
:101590000837BD4680BD00BF80B582B000AF78601F
:1015A0007B6800225A607B6800229A607B6818681A
:1015B0007B68DB681A46002104F0F5FA00BF0837A3
:1015C000BD4680BD80B582B000AF78607868FEF718
:1015D00097FE034618460837BD4680BD80B582B0E9
:1015E00000AF7860396039687868FEF7B3FE7B68D1
:1015F00018460837BD4680BD80B582B000AF786020
:101600007868FEF7B5FE034618460837BD4680BD2C
:1016100080B582B000AF78607B681846FFF7C4FCE5
:101620007B6818460837BD4680BD00BF80B582B0D4
:1016300000AF78607B681846FFF7EAFF7B681846C2
:101640000837BD4680BD00BFB0B59CB000AF07F104
:10165000680328211846FEF761FE07F1640329217B
:101660001846FEF75BFE381D2A232422252100F0B0
:101670006DF807F1680301211846FFF7AFFF07F186
:10168000640301211846FFF7A9FF0023FB66FB6EE8
:10169000032B34DC2949FA6E13465B0013449B008C
:1016A0000B441C682549FA6E13465B0013449B00EB
:1016B0000B4408331D682149FA6E13465B0013443E
:1016C0009B000B4404331B68381D2A46214600F05A
:1016D00067F8034683F00103DBB2002B0BD01749F8
:1016E000FA6E13465B0013449B000B441B681946BB
:1016F0001348FFF76FF9FB6E0133FB66C7E711482C
:1017000004F05AFE07F164031846FFF775FF03461D
:10171000002B0CBF01230023DBB21A4607F1640340
:1017200011461846FFF75AFF0748FFF7AFFBE9E7F6
:101730003B1D1846FFF77AFF02F0B2FE6802002058
:10174000DC6C0000006D0000CDCC4C3E80B582B05A
:1017500000AF7860084611461A460346FB700B46F8
:10176000BB7013467B707B6897F9022097F90310D2
:10177000184600F08FF87B685C3397F9012011461A
:101780001846FEF7A1FD7B6805E07B681846FFF769
:101790003FFF02F085FE18460837BD4680BD00BFFA
:1017A00080B586B000AFF860B9607A603B603B6896
:1017B000013B9B0A01333B61314804F0FDFDF868B1
:1017C00000F082F8034683F00103DBB2002B02D065
:1017D0002C48FFF7FFF83B699A02BB6813441A468E
:1017E000B968294804F076FDBB684FF48062396916
:1017F000F86800F079F8034683F00103DBB2002BB0
:1018000001D0002337E000237B617A693B699A426B
:101810001FD27B699B021A46BB68134419461B48BA
:1018200004F058FD7B699B021A467B6899187B6916
:101830004FF48062F86800F0ABF8034683F00103D0
:10184000DBB2002B01D0002315E07B6901337B6103
:10185000DBE70F4804F0B0FDF86800F009F9034633
:1018600083F00103DBB2002B01D0002303E0FA2058
:10187000FFF722FB012318461837BD4680BD00BF85
:101880000C6D00001C6D0000286D00004C6D000008
:10189000686D000080B584B002AF78600B46FB70C5
:1018A0001346BB70786897F9022097F9031000235C
:1018B0000193042300934FF48073FFF721FB7B68AF
:1018C00018460837BD4680BD80B582B000AF78604D
:1018D000786800F0FDF80346002BF9D00123184684
:1018E0000837BD4680BD00BF80B586B000AFF86048
:1018F000B9607A603B6000237B61BB687A6802FB59
:1019000003F33B6114220221F86800F091F90346C9
:10191000002B37D0FB6807F114010422184600F0B1
:10192000BBF90346002B2DD0FB6807F11001042200
:10193000184600F0B1F90346002B23D0FB6807F1ED
:1019400008010422184600F0A7F90346002B19D01D
:10195000FB68391D0422184600F09EF90346002B4F
:1019600010D0FB6839460422184600F095F903466A
:10197000002B07D0F86800F0B5F90346002B01D022
:10198000012300E0002318461837BD4680BD00BF84
:1019900080B588B000AFF860B9607A603B60002322
:1019A000BB61EF237B610023FB61FA697B689A428C
:1019B0000BD2FB69BA6813441B781A467B69534003
:1019C0007B61FB690133FB61EFE77B689BB21433FA
:1019D0009BB21A460321F86800F02AF90346002B4F
:1019E00040D0FB6807F114010422184600F054F9B6
:1019F0000346002B36D0FB68391D0422184600F040
:101A00004BF90346002B2DD0FB68394604221846BB
:101A100000F042F90346002B24D0FB6807F11801BF
:101A20000422184600F038F90346002B1AD0FB6850
:101A300007F118010422184600F02EF90346002B86
:101A400010D0FB687A68B968184600F025F903469B
:101A5000002B07D0F86800F045F90346002B01D0B1
:101A6000012300E0002318462037BD4680BD00BF9B
:101A700080B584B000AF78600023FB6008220421A9
:101A8000786800F0D5F80346002B1BD07B6807F17F
:101A90000C010422184600F0FFF80346002B11D079
:101AA0007B6807F10C010422184600F0F5F80346A4
:101AB000002B07D0786800F015F90346002B01D001
:101AC000012300E0002318461037BD4680BD00BF4B
:101AD00080B586B000AF78607B68184600F01AF9D0
:101AE000514804F069FC7B685C331846FFF76AFDD7
:101AF0000346FB607B685C331846FFF763FD0246D4
:101B0000FB689A420CBF01230023DBB2002B00D0FC
:101B1000F0E7464804F050FC0023BB60282208216F
:101B2000786800F085F8034683F00103DBB2002BF0
:101B300038D17B6807F108010422184600F0ACF8A0
:101B4000034683F00103DBB2002B2BD17B68072116
:101B5000184600F0F9F8034683F00103DBB2002BCE
:101B600020D17B680721184600F0EEF8034683F089
:101B70000103DBB2002B15D17B681221184600F05F
:101B8000E3F8034683F00103DBB2002B0AD17B6844
:101B90002021184600F0D8F8034683F00103DBB299
:101BA000002B01D0012300E00023002B01D00023F3
:101BB00035E000237B617B691F2B10DC7B6855219E
:101BC000184600F0C1F8034683F00103DBB2002B96
:101BD00001D0002323E07B6901337B61EBE7786868
:101BE00000F080F8034683F00103DBB2002B01D044
:101BF000002314E000233B613B69062B0EDC786870
:101C000000F0DEF8034683F00103DBB2002B01D0C5
:101C1000002304E03B6901333B61EDE701231846F3
:101C20001837BD4680BD00BF7C6D0000BC6D000054
:101C300080B582B000AF78600B46FB7013463B80E6
:101C40003B88043B9BB23B807B68184600F002F95E
:101C50000346002B1BD07B680021184600F074F867
:101C60000346002B13D07B68FA781146184600F023
:101C70006BF80346002B0AD07B68394602221846CF
:101C800000F00AF80346002B01D0012300E00023F6
:101C900018460837BD4680BD80B586B000AFF860F5
:101CA000B9607A6000237B617A697B689A4213DAB3
:101CB0007B69BA6813441B781946F86800F044F849
:101CC000034683F00103DBB2002B01D0002304E0C4
:101CD0007B6901337B61E7E7012318461837BD466E
:101CE00080BD00BF80B582B000AF78607B681846C9
:101CF00000F0C0F80346002B07D0786800F060F8C9
:101D00000346002B01D0012300E0002318460837CA
:101D1000BD4680BD80B582B000AF78607B68184654
:101D2000FFF792F90346002B14BF01230023DBB217
:101D3000002B04D07B681846FFF7A0F9EEE700BF40
:101D40000837BD4680BD00BF80B582B000AF786067
:101D50000B46FB70FB78C02B13D0DB2B23D1DB2190
:101D6000786800F097F80346002B08DBDD217868DF
:101D700000F090F80346002B01DB01231CE0002358
:101D80001AE0DB21786800F085F80346002B08DBB9
:101D9000DC21786800F07EF80346002B01DB01238C
:101DA0000AE0002308E0FB781946786800F072F832
:101DB0000346DB43DB0FDBB218460837BD4680BD68
:101DC00080B584B000AF78607B68184600F084F876
:101DD0000346002B38D07B68184600F08FF8034686
:101DE000012B31D17B68184600F088F80346002BA0
:101DF0002ADB7B6807F10E010222184600F0A6F8E4
:101E00000346002B20D07B68FA8902320021184655
:101E100000F09CF80346002B16D07B68184600F0B3
:101E20006DF80346002B0FD17B68184600F066F86A
:101E30000346002B08DB7B68184600F0AFF803462A
:101E4000002B01D0012300E0002318461037BD46C7
:101E500080BD00BF80B582B000AF7860C0217868D7
:101E600000F018F80346DB43DB0FDBB218460837F7
:101E7000BD4680BD80B582B000AF7860C021786873
:101E800000F008F80346DB43DB0FDBB218460837E7
:101E9000BD4680BD80B582B000AF78600B46FB7058
:101EA0006420FFF719F87B681846FFF7DBF8034654
:101EB000002B0CBF01230023DBB2002B00D0F2E784
:101EC0007B68FA7811461846FFF7E6F8034618468D
:101ED0000837BD4680BD00BF80B582B000AF7860D6
:101EE000786800F06DF80346C02B0CBF0123002377
:101EF000DBB218460837BD4680BD00BF80B584B050
:101F000000AF7860786800F05BF80346FB60FB6820
:101F1000002B02DA4FF0FF3314E0FB68DB2B10D10B
:101F2000786800F04DF80346FB60FB68DC2B03D0BB
:101F3000DD2B03D1DB2305E0C02303E04FF0FF33AB
:101F400000E0FB6818461037BD4680BD80B586B0FE
:101F500000AFF860B9607A6000237B617A697B68C2
:101F60009A4216DAF868FFF7C9FF03463B613B69FE
:101F7000002B01DA00230DE0BB68002B05D07B6944
:101F8000BA6813443A69D2B21A707B6901337B6133
:101F9000E4E7012318461837BD4680BD80B582B0FE
:101FA00000AF7860786800F00BF80346C02B0CBFD8
:101FB00001230023DBB218460837BD4680BD00BFB1
:101FC00080B588B000AF786007F10C031846FEF7C3
:101FD00065FB07F10C031846FEF77AFB7B68184691
:101FE000FFF732F80346002B0CBF01230023DBB2BE
:101FF000002B11D007F10C031846FEF79BFB02469D
:1020000040F2DC539A42CCBF01230023DBB2002B09
:10201000E4D04FF0FF3306E07B681846FFF72EF858
:102020000346FB61FB6918462037BD4680BD00BFF3
:1020300080B487B000AF03463960FB71184B9B68D2
:102040007B61174B9B68002B1BD17B69FB604FF0BA
:1020500000537B6100233B610CE03B699B007A6984
:1020600013443A699200F9680A4412681A603B699D
:1020700001333B613B69992BEFD9094B4FF000527B
:102080009A6097F9073010339B007A6913443A68D5
:102090001A6000BF1C37BD465DF8047B704700BF67
:1020A00000ED00E080B582B000AF144B7B60144BB4
:1020B0003B6007E03B681A1D3A607A68111D796041
:1020C00012681A603B680F4A9342F3D30F481049D5
:1020D0004FF000028842B8BF40F8042BFADB0A4AEE
:1020E000094B1B6843F47003136000F027F8FFF7F7
:1020F000ABFA00BF0837BD4680BD00BF5CF20300ED
:10210000680200201003002088ED00E0100300208A
:10211000B405002080B400AFFEE700BF80B400AF7C
:10212000FEE700BF80B400AFFEE700BF80B400AFA1
:1021300000BFBD465DF8047B704700BF80B483B02C
:1021400000AF244B244A1A67224B244A1A66214BBB
:10215000234A1A661F4B234A1A6700237B6002E05A
:102160007B6801337B607B68B3F57A7FF8D3194BCA
:102170001D4A1A66174B1D4A1A6700237B6002E04E
:102180007B6801337B607B68B3F57A7FF8D3114BB2
:10219000174A1A6600BF0F4B1B6D03F04003002B5C
:1021A000F9D00C4B134A1A660A4B4FF041421A679A
:1021B00000237B6002E07B6801337B607B6842F236
:1021C0000F729342F7D900BF0C37BD465DF8047B10
:1021D000704700BF00E00F4010288007D13A8E07FB
:1021E000422D9E00002800C1420D9E00000800C143
:1021F000420DDE004205DE0080B584B000AF78609D
:102200000B46FB700023FB7397F90330184600F070
:10221000C1FC0346BB7397F90330184600F042FE39
:102220000346FB737B68FA7B9A70BB7B052B57D800
:1022300001A252F823F000BF5122000069220000E1
:102240008122000099220000B1220000C922000072
:102250007B6800225A70244A234BD3F8083643F097
:102260000103C2F808363BE07B6801225A701E4A1F
:102270001D4BD3F8083643F00203C2F808362FE0AE
:102280007B6802225A70184A174BD3F8083643F07D
:102290000403C2F8083623E07B6803225A70124A0E
:1022A000114BD3F8083643F00803C2F8083617E09C
:1022B0007B6804225A700C4A0B4BD3F8083643F063
:1022C0001003C2F808360BE07B6805225A70064AF4
:1022D000054BD3F8083643F02003C2F8083600BF98
:1022E00000BF1037BD4680BD00E00F4080B584B010
:1022F00000AF786039607B6893F90030B3F1FF3F3D
:1023000004D132225B495C48FEF75EFA7B685B7859
:10231000FB733B68012B52D1FB7B052B00F2A6809F
:1023200001A252F823F000BF41230000592300000E
:102330006D2300008123000095230000A9230000E5
:102340004FF040214FF04023D3F8FC337A68927865
:102350001343C1F8FC3389E04849484BD3F8FC33B8
:102360007A6892781343C1F8FC337FE04449444BC8
:10237000D3F8FC337A6892781343C1F8FC3375E0E4
:102380004049404BD3F8FC337A6892781343C1F844
:10239000FC336BE03C493C4BD3F8FC337A689278D1
:1023A0001343C1F8FC3361E03849384BD3F8FC33B0
:1023B0007A6892781343C1F8FC3300BF56E0FB7B88
:1023C000052B53D801A252F823F000BFE5230000EB
:1023D000FF230000152400002B24000041240000EE
:1023E000572400004FF040214FF04023D3F8FC3336
:1023F0007A689278D2431340C1F8FC3336E01F4923
:102400001E4BD3F8FC337A689278D2431340C1F85C
:10241000FC332BE01A491A4BD3F8FC337A689278D4
:10242000D2431340C1F8FC3320E01649154BD3F8D2
:10243000FC337A689278D2431340C1F8FC3315E03C
:102440001149114BD3F8FC337A689278D243134088
:10245000C1F8FC330AE00D490C4BD3F8FC337A6821
:102460009278D2431340C1F8FC3300BF00BF10374D
:10247000BD4680BDA0E90300C8E90300005000404C
:1024800000600040007000400040024000500240E8
:1024900080B584B000AF78600B46FB707B6893F921
:1024A0000030B3F1FF3F04D16A2296499648FEF707
:1024B0008BF97B685B78FB73FB78012B40F08B809A
:1024C000FB7B052B00F21A8101A252F823F000BF1A
:1024D000E9240000172500003D25000063250000C9
:1024E00089250000AF2500004FF040214FF0402328
:1024F000D3F800347A6892781343C1F800344FF06F
:1025000040214FF04023D3F81C357A68927813436A
:10251000C1F81C35F2E07D497C4BD3F800347A6871
:1025200092781343C1F800347849784BD3F81C35BE
:102530007A6892781343C1F81C35DFE07449744B14
:10254000D3F800347A6892781343C1F800347049A4
:102550006F4BD3F81C357A6892781343C1F81C3559
:10256000CCE06C496B4BD3F800347A689278134313
:10257000C1F800346749674BD3F81C357A68927804
:102580001343C1F81C35B9E06349634BD3F80034F9
:102590007A6892781343C1F800345F495E4BD3F8F0
:1025A0001C357A6892781343C1F81C35A6E05B4964
:1025B0005A4BD3F800347A6892781343C1F8003448
:1025C0005649564BD3F81C357A6892781343C1F8B4
:1025D0001C3500BF92E0FB78002B40F08F80FB7B26
:1025E000052B00F28B8001A252F823F00526000093
:1025F000352600005D26000085260000AD2600007F
:10260000D52600004FF040214FF04023D3F800348E
:102610007A689278D2431340C1F800344FF04021D9
:102620004FF04023D3F81C357A6892781343C1F8F1
:102630001C3563E03549354BD3F800347A6892781D
:10264000D2431340C1F800343049304BD3F81C3525
:102650007A6892781343C1F81C354FE02C492C4B13
:10266000D3F800347A689278D2431340C1F800342A
:102670002749274BD3F81C357A6892781343C1F861
:102680001C353BE02349234BD3F800347A68927819
:10269000D2431340C1F800341E491E4BD3F81C35F9
:1026A0007A6892781343C1F81C3527E01A491A4B0F
:1026B000D3F800347A689278D2431340C1F80034DA
:1026C0001549154BD3F81C357A6892781343C1F835
:1026D0001C3513E01149114BD3F800347A68927815
:1026E000D2431340C1F800340C490C4BD3F81C35CD
:1026F0007A6892781343C1F81C3500BF00BF1037C9
:10270000BD4680BDA0E90300C8E9030000500040B9
:102710000060004000700040004002400050024055
:1027200080B584B000AF78600B46FB707B6893F98E
:102730000030B3F1FF3F04D1AE22B349B348FEF7F6
:1027400043F87B685B78FB73FB78002B03D0FB7846
:10275000052B40F08A80FB7B052B00F2AE8101A2A5
:1027600052F823F07D270000AB270000D12700009E
:10277000F72700001D280000432800004FF04021EB
:102780004FF04023D3F800357A6892781343C1F8AC
:1027900000354FF040214FF04023D3F810357A68D0
:1027A00092781343C1F810355EE09949984BD3F8FD
:1027B00000357A6892781343C1F800359449944BF8
:1027C000D3F810357A6892781343C1F810354BE08E
:1027D0009049904BD3F800357A6892781343C1F84A
:1027E00000358C498B4BD3F810357A6892781343B7
:1027F000C1F8103538E08749864BD3F800357A6840
:1028000092781343C1F800358249824BD3F81035D2
:102810007A6892781343C1F8103525E07E497E4BE3
:10282000D3F800357A6892781343C1F800357A49B5
:10283000794BD3F810357A6892781343C1F8103584
:1028400012E07649754BD3F800357A6892781343D5
:10285000C1F800357149714BD3F810357A68927818
:102860001343C1F8103500BF27E1FB78012B40F07E
:102870008A80FB7B052B00F2218101A252F823F014
:1028800099280000C7280000ED2800001329000047
:10289000392900005F2900004FF040214FF040230C
:1028A000D3F800357A6892781343C1F800354FF0B9
:1028B00040214FF04023D3F814357A6892781343BF
:1028C000C1F81435FAE05249514BD3F800357A6813
:1028D00092781343C1F800354D494D4BD3F8143568
:1028E0007A6892781343C1F81435E7E04949494BB7
:1028F000D3F800357A6892781343C1F8003545491A
:10290000444BD3F814357A6892781343C1F81435E0
:10291000D4E040493F4BD3F800357A6892781343AE
:10292000C1F800353B493B4BD3F814357A689278AF
:102930001343C1F81435C1E03749374BD3F800359C
:102940007A6892781343C1F800353349324BD3F893
:1029500014357A6892781343C1F81435AEE02F49E4
:102960002E4BD3F800357A6892781343C1F80035BE
:102970002A492A4BD3F814357A6892781343C1F860
:10298000143500BF9AE0FB78042B40F09780FB7B66
:10299000052B00F2938001A252F823F0B529000024
:1029A000E3290000212A0000472A00006D2A0000C8
:1029B000932A00004FF040214FF04023D3F8003518
:1029C0007A6892781343C1F800354FF040214FF0F8
:1029D0004023D3F80C357A6892781343C1F80C354C
:1029E0006CE00B490A4BD3F800357A6892781343B0
:1029F000C1F800350649064BD3F80C357A68927851
:102A00001343C1F80C3559E0A0E90300C8E90300FD
:102A10000050004000600040004002400050024072
:102A20002849284BD3F800357A6892781343C1F8C7
:102A300000352449234BD3F80C357A689278134338
:102A4000C1F80C353AE01F491E4BD3F800357A68BF
:102A500092781343C1F800351A491A4BD3F80C3554
:102A60007A6892781343C1F80C3527E01649164B63
:102A7000D3F800357A6892781343C1F800351249CB
:102A8000114BD3F80C357A6892781343C1F80C35A2
:102A900014E00E490D4BD3F800357A689278134351
:102AA000C1F800350949094BD3F80C357A6892789A
:102AB0001343C1F80C3500BF00E000BF00BF103762
:102AC000BD4680BD00600040004002400050024012
:102AD00080B485B000AF78607B685B78FB72FB7A6E
:102AE000052B40D801A252F823F000BF052B0000AF
:102AF000172B0000272B0000372B0000472B00006E
:102B0000572B00004FF04023D3F8FC337A689278BB
:102B10001340FB6027E01A4BD3F8FC337A689278B5
:102B20001340FB601FE0174BD3F8FC337A689278B0
:102B30001340FB6017E0144BD3F8FC337A689278AB
:102B40001340FB600FE0114BD3F8FC337A689278A6
:102B50001340FB6007E00E4BD3F8FC337A689278A1
:102B60001340FB6000BFFB68002B01DD0123FB600D
:102B7000FB6818461437BD465DF8047B704700BFFC
:102B800000500040006000400070004000400240E3
:102B90000050024080B485B000AF0346FB7197F946
:102BA0000730002B0CBF01230023DAB297F907305E
:102BB000012B0CBF01230023DBB21343DBB21A4607
:102BC00097F90730022B0CBF01230023DBB213431C
:102BD00097F90720032A0CBF01220022D2B2134327
:102BE00097F90720042A0CBF01220022D2B2134316
:102BF00097F90720052A0CBF01220022D2B2134305
:102C000097F90720062A0CBF01220022D2B21343F3
:102C100097F90720072A0CBF01220022D2B21343E2
:102C2000002B02D00023FB7334E197F90730082B07
:102C30000CBF01230023DAB297F90730092B0CBF30
:102C400001230023DBB21343DBB21A4697F90730A6
:102C50000A2B0CBF01230023DBB2134397F9072093
:102C60000B2A0CBF01220022D2B2134397F907208E
:102C70000C2A0CBF01220022D2B2134397F907207D
:102C80000D2A0CBF01220022D2B2134397F907206C
:102C90000E2A0CBF01220022D2B2134397F907205B
:102CA0000F2A0CBF01220022D2B21343002B02D004
:102CB0000123FB73EEE097F90730102B0CBF0123C3
:102CC0000023DAB297F90730112B0CBF0123002340
:102CD000DBB21343DBB21A4697F90730122B0CBF55
:102CE00001230023DBB2134397F90720132A0CBFFB
:102CF00001220022D2B2134397F90720142A0CBFF5
:102D000001220022D2B2134397F90720152A0CBFE3
:102D100001220022D2B2134397F90720162A0CBFD2
:102D200001220022D2B2134397F90720172A0CBFC1
:102D300001220022D2B21343002B02D00223FB73E4
:102D4000A8E097F90730182B0CBF01230023DAB253
:102D500097F90730192B0CBF01230023DBB2134373
:102D6000DBB21A4697F907301A2B0CBF0123002358
:102D7000DBB2134397F907201B2A0CBF0122002264
:102D8000D2B2134397F907201C2A0CBF012200225C
:102D9000D2B2134397F907201D2A0CBF012200224B
:102DA000D2B2134397F907201E2A0CBF012200223A
:102DB000D2B2134397F907201F2A0CBF0122002229
:102DC000D2B21343002B02D00323FB7362E097F9C6
:102DD0000730202B0CBF01230023DAB297F907300C
:102DE000212B0CBF01230023DBB21343DBB21A46B5
:102DF00097F90730222B0CBF01230023DBB21343CA
:102E000097F90720232A0CBF01220022D2B21343D4
:102E100097F90720242A0CBF01220022D2B21343C3
:102E200097F90720252A0CBF01220022D2B21343B2
:102E3000002B02D00423FB732CE097F90730262BDC
:102E40000CBF01230023DAB297F90730272B0CBF00
:102E500001230023DBB21343DBB21A4697F9073094
:102E6000282B0CBF01230023DBB2134397F9072063
:102E7000292A0CBF01220022D2B2134397F907205E
:102E80002A2A0CBF01220022D2B21343002B01D008
:102E90000523FB73FB7B18461437BD465DF8047BA6
:102EA000704700BF80B485B000AF0346FB7197F94F
:102EB0000730002B13D097F90730082B0FD097F964
:102EC0000730102B0BD097F90730182B07D097F944
:102ED0000730202B03D097F90730262B02D101238E
:102EE000FB73A7E097F90730012B13D097F9073050
:102EF000092B0FD097F90730112B0BD097F907301A
:102F0000192B07D097F90730212B03D097F90730F9
:102F1000272B02D10223FB738CE097F90730022B99
:102F200013D097F907300A2B0FD097F90730122BDF
:102F30000BD097F907301A2B07D097F90730222BBF
:102F400003D097F90730282B02D10423FB7371E0DB
:102F500097F90730032B13D097F907300B2B0FD0BD
:102F600097F90730132B0BD097F907301B2B07D09D
:102F700097F90730232B03D097F90730292B02D17B
:102F80000823FB7356E097F90730042B13D097F909
:102F900007300C2B0FD097F90730142B0BD097F973
:102FA00007301C2B07D097F90730242B03D097F953
:102FB00007302A2B02D11023FB733BE097F907302F
:102FC000052B0FD097F907300D2B0BD097F9073051
:102FD000152B07D097F907301D2B03D097F9073031
:102FE000252B02D12023FB7324E097F90730062B11
:102FF0000BD097F907300E2B07D097F90730162B17
:1030000003D097F907301E2B02D14023FB7311E048
:1030100097F90730072B0BD097F907300F2B07D004
:1030200097F90730172B03D097F907301F2B01D1E1
:103030008023FB73FB7B18461437BD465DF8047B89
:10304000704700BF80B483B000AF0346FB710949ED
:1030500097F907305B09FA7902F01F02012000FAA4
:1030600002F241F8232000BF0C37BD465DF8047B17
:10307000704700BF00E100E080B483B000AF0346BA
:10308000FB71094997F907305B09FA7902F01F02D1
:10309000012000FA02F2203341F8232000BF0C3750
:1030A000BD465DF8047B704700E100E080B584B068
:1030B00000AF78600B46FB701346BB700623FB73B2
:1030C0000023BB6097F9022097F90330194678680E
:1030D00000F010FA0346FB737B68FA7B1A707B687A
:1030E0001B78062B04D12E2257495848FDF76CFB5C
:1030F000FB7B052B44D801A252F823F015310000C8
:1031000027310000393100004B3100005D310000F3
:103110006F3100004E4A4E4BD3F8083643F001039E
:10312000C2F808362DE04A4A494BD3F8083643F036
:103130000203C2F8083624E0454A454BD3F8083666
:1031400043F00403C2F808361BE0414A404BD3F871
:10315000083643F00803C2F8083612E03C4A3C4BFC
:10316000D3F8083643F01003C2F8083609E0384AAD
:10317000374BD3F8083643F02003C2F8083600E096
:1031800000BF7B685B78072B42D801A252F823F07E
:10319000B1310000BD310000C9310000D53100005F
:1031A000E1310000ED310000F9310000053200008E
:1031B00000F03AFB7B68274A5A6029E000F07CFB6C
:1031C0007B68254A5A6023E000F0B8FB7B68234AFD
:1031D0005A601DE000F0F4FB7B68214A5A6017E05A
:1031E00000F030FC7B681F4A5A6011E000F06CFC74
:1031F0007B681D4A5A600BE000F0A8FC7B681B4A04
:103200005A6005E000F0E4FC7B68194A5A6000BF90
:103210007B685B78002B0CBF01230023DBB2BB6013
:10322000BB68002B0CD0134B01221A604FF4E13124
:10323000786800F039F90C2279680F4802F0A8FC90
:1032400000BF1037BD4680BDE0E9030008EA030077
:1032500000E00F4000C0004000D0004000E000400F
:1032600000F000400000014000100140002001403B
:103270000030014040050020A405002080B586B044
:1032800000AFF8600B467A60FB720023FB750023E9
:103290003B61FB7A002B08D1FB681B7A7A68D1B2BC
:1032A000374ADB0013440A461A71FB685B78072B28
:1032B0003AD801A252F823F0D9320000E3320000DC
:1032C000ED320000F7320000013300000B33000044
:1032D000153300001F3300000523FB75294B3B61AC
:1032E00022E00623FB75284B3B611DE02123FB7583
:1032F000264B3B6118E03B23FB75254B3B6113E0FC
:103300003C23FB75234B3B610EE03D23FB75224BB9
:103310003B6109E03E23FB75204B3B6104E03F230A
:10332000FB751F4B3B6100BF7B68012B13D1FB6812
:103330005B68FA685268926B42F010029A6397F9E0
:10334000173039691846FEF773FE97F9173018469B
:10335000FFF778FE0FE0FB7A012B07D0FB681B7AA2
:10336000074ADB00134400221A7104E097F9173072
:103370001846FFF781FE00BF1837BD4680BD00BF6D
:103380004405002029370000493700006937000054
:1033900089370000A9370000C9370000E93700006D
:1033A0000938000080B485B000AFF860B9607A6079
:1033B000074ABB681360FB681B7A1946054A7B689D
:1033C00042F8313000BF1437BD465DF8047B7047CA
:1033D0003C0500204405002080B584B000AF786033
:1033E00000BF786800F024F80346002BF9D0044BA6
:1033F0001B68DBB2FB60FB6818461037BD4680BD1A
:103400000010014080B582B000AF7860396000BF25
:10341000786800F02BF80346002BF9D07B685B68D6
:103420003A68D2B21A6000BF0837BD4680BD00BFFF
:1034300080B485B000AF78607B685B689B6903F0FF
:103440001003002B02D10123FB6008E07B685B685E
:103450009B6903F01003002B01D00023FB60FB6885
:1034600018461437BD465DF8047B704780B485B0BC
:1034700000AF78607B685B689B6903F02003002BDA
:1034800002D10123FB6008E07B685B689B6903F065
:103490002003002B01D00023FB60FB681846143783
:1034A000BD465DF8047B704780B483B000AF7860A0
:1034B00039603B68B3F5E13F08D17B685B682B223C
:1034C0005A627B685B681A229A620CE03B68B3F52B
:1034D000165F08D17B685B684FF402725A627B68A2
:1034E0005B6835229A6200BF0C37BD465DF8047BED
:1034F000704700BF80B485B000AF78600B46FB70AA
:103500001346BB7097F90330012B14D197F90230A1
:10351000002B10D10023FB737B6800225A707B685C
:1035200000221A72604A604BD3F8183643F0010348
:10353000C2F81836B0E097F90330092B14D197F987
:103540000230082B10D10123FB737B6801225A70D3
:103550007B6801221A72544A534BD3F8183643F051
:103560000203C2F8183697E097F903301F2B14D1E5
:1035700097F902301E2B10D10323FB737B680222C4
:103580005A707B6802221A72474A474BD3F81836A2
:1035900043F00403C2F818367EE097F90330172B86
:1035A00014D197F90230162B10D10223FB737B68DC
:1035B00003225A707B6803221A723B4A3A4BD3F8B3
:1035C000183643F00803C2F8183665E097F903305F
:1035D000152B14D197F90230142B10D10223FB7351
:1035E0007B6804225A707B6804221A722E4A2E4B82
:1035F000D3F8183643F01003C2F818364CE097F9A8
:103600000330252B14D197F90230242B10D1042339
:10361000FB737B6805225A707B6805221A72224A66
:10362000214BD3F8183643F02003C2F8183633E0A4
:1036300097F903301D2B14D197F902301C2B10D1B0
:103640000323FB737B6806225A707B6806221A727A
:10365000154A154BD3F8183643F04003C2F8183614
:103660001AE097F90330212B14D197F90230202B5F
:1036700010D10423FB737B6807225A707B680722F2
:103680001A72094A084BD3F8183643F08003C2F87F
:10369000183601E00623FB73FB7B18461437BD4642
:1036A0005DF8047B704700BF00E00F4080B586B036
:1036B00000AFF860B9607A60FB68202B04D0302B33
:1036C00008D0102B03D027E00123FB7505E0002371
:1036D000FB7502E00023FB7500BFFB7D002B02D1D0
:1036E0007B6830225A640E4ABB6852F83330002B94
:1036F00012D0FB7D002B06D1094ABB68DB001344C6
:103700001B79002B08D0074B1B680549BA6851F894
:103710003220F97D104698471837BD4680BD00BF5E
:10372000440500203C05002080B500AF054BDB6B55
:1037300003F03003034A00211846FFF7B7FF00BF2C
:1037400080BD00BF00C0004080B500AF054BDB6B03
:1037500003F03003034A01211846FFF7A7FF00BF1B
:1037600080BD00BF00D0004080B500AF054BDB6BD3
:1037700003F03003034A02211846FFF797FF00BF0A
:1037800080BD00BF00E0004080B500AF054BDB6BA3
:1037900003F03003034A03211846FFF787FF00BFF9
:1037A00080BD00BF00F0004080B500AF054BDB6B73
:1037B00003F03003034A04211846FFF777FF00BFE8
:1037C00080BD00BF0000014080B500AF054BDB6B42
:1037D00003F03003034A05211846FFF767FF00BFD7
:1037E00080BD00BF0010014080B500AF054BDB6B12
:1037F00003F03003034A06211846FFF757FF00BFC6
:1038000080BD00BF0020014080B500AF054BDB6BE1
:1038100003F03003034A07211846FFF747FF00BFB4
:1038200080BD00BF0030014080B400AF4FF04022A7
:103830004FF04023D3F8203443F00303C2F8203480
:103840004FF040224FF04023D3F8003543F00303FC
:10385000C2F800354FF040224FF04023D3F81C351A
:1038600043F00303C2F81C354FF040224FF04023D1
:10387000D3F82C3543F01103C2F82C350D4A0D4B0B
:103880001B6B23F0010313630A4B2B225A62094B73
:103890001A229A62074B7022DA62064B0022C3F8A2
:1038A000C82F044B40F201321A6300BFBD465DF8D9
:1038B000047B704700C0004080B400AF1D4A1D4B20
:1038C000D3F8203443F00303C2F82034194A194BCB
:1038D000D3F8003543F00303C2F80035154A154B01
:1038E000D3F81C3543F00303C2F81C35114A114BC1
:1038F000D3F82C3543F01103C2F82C350E4A0E4B89
:103900001B6B23F0010313630B4B2B225A620A4BF0
:103910001A229A62084B7022DA62074B0022C3F81F
:10392000C82F054B40F201321A6300BFBD465DF857
:10393000047B70470050004000D0004080B400AFCE
:103940001D4A1D4BD3F8203443F0C003C2F8203485
:10395000194A194BD3F8003543F0C003C2F80035BB
:10396000154A154BD3F81C3543F0C003C2F81C357B
:10397000114A114BD3F82C3543F08853C2F82C353B
:103980000E4A0E4B1B6B23F0010313630B4B2B22D0
:103990005A620A4B1A229A62084B7022DA62074B6B
:1039A0000022C3F8C82F054B40F201321A6300BF52
:1039B000BD465DF8047B70470070004000E00040A9
:1039C00080B400AF1D4A1D4BD3F8203443F0C00330
:1039D000C2F82034194A194BD3F8003543F0C0031C
:1039E000C2F80035154A154BD3F81C3543F0C00317
:1039F000C2F81C35114A114BD3F82C3543F08853CB
:103A0000C2F82C350E4A0E4B1B6B23F001031363D7
:103A10000B4B2B225A620A4B1A229A62084B7022D5
:103A2000DA62074B0022C3F8C82F054B40F201327F
:103A30001A6300BFBD465DF8047B7047006000401C
:103A400000F0004080B400AF1D4A1D4BD3F8203475
:103A500043F03003C2F82034194A194BD3F800352B
:103A600043F03003C2F80035154A154BD3F81C3526
:103A700043F03003C2F81C35114A114BD3F82C35F2
:103A800043F48813C2F82C350E4A0E4B1B6B23F0FF
:103A9000010313630B4B2B225A620A4B1A229A62C0
:103AA000084B7022DA62074B0022C3F8C82F054B7F
:103AB00040F201321A6300BFBD465DF8047B7047D7
:103AC000006000400000014080B400AF1D4A1D4B63
:103AD000D3F8203443F03003C2F82034194A194B8C
:103AE000D3F8003543F03003C2F80035154A154BC2
:103AF000D3F81C3543F03003C2F81C35114A114B82
:103B0000D3F82C3543F48813C2F82C350E4A0E4BEB
:103B10001B6B23F0010313630B4B2B225A620A4BDE
:103B20001A229A62084B7022DA62074B0022C3F80D
:103B3000C82F054B40F201321A6300BFBD465DF845
:103B4000047B7047004002400010014080B400AF89
:103B50001D4A1D4BD3F8203443F03003C2F8203403
:103B6000194A194BD3F8003543F03003C2F8003539
:103B7000154A154BD3F81C3543F03003C2F81C35F9
:103B8000114A114BD3F82C3543F48813C2F82C3565
:103B90000E4A0E4B1B6B23F0010313630B4B2B22BE
:103BA0005A620A4B1A229A62084B7022DA62074B59
:103BB0000022C3F8C82F054B40F201321A6300BF40
:103BC000BD465DF8047B7047007000400020014056
:103BD00080B400AF1D4A1D4BD3F8203443F00303DB
:103BE000C2F82034194A194BD3F8003543F00303C7
:103BF000C2F80035154A154BD3F81C3543F00303C2
:103C0000C2F81C35114A114BD3F82C3543F011037F
:103C1000C2F82C350E4A0E4B1B6B23F001031363C5
:103C20000B4B2B225A620A4B1A229A62084B7022C3
:103C3000DA62074B0022C3F8C82F054B40F201326D
:103C40001A6300BFBD465DF8047B70470040024028
:103C50000030014080B483B000AF0346FB710949D6
:103C600097F907305B09FA7902F01F02012000FA88
:103C700002F241F8232000BF0C37BD465DF8047BFB
:103C8000704700BF00E100E080B483B000AF03469E
:103C9000FB71094997F907305B09FA7902F01F02B5
:103CA000012000FA02F2603341F8232000BF0C37F4
:103CB000BD465DF8047B704700E100E080B582B04E
:103CC00000AF00237B60134B1B78002B1ED1114BE0
:103CD00001221A70104B0122C3F804260F4B002258
:103CE000DA600E4B00221A600C4B12225A600B4B0A
:103CF00001229A61094B0322DA60094B194613200D
:103D0000FEF796F91320FFF7A5FF00E000BF083784
:103D1000BD4680BD8405002000E00F400000034048
:103D2000790E000080B582B000AF0A4B1B78002BE3
:103D300001D1FFF7C3FF084B9B6C7B607B68074A90
:103D4000A2FB03239B097B607B6818460837BD46AE
:103D500080BD00BF8405002000000340CDCCCCCC4A
:103D600080B400AF054A054B9B6923F001039361C2
:103D700000BFBD465DF8047B704700BF00000340F4
:103D800080B500AF034B01225A621320FFF77CFF7E
:103D900000BF80BD0000034080B483B000AF7860F6
:103DA00006497A6813469B0013441B018B6200BFCF
:103DB0000C37BD465DF8047B704700BF0000034030
:103DC00000F000B801F088BE10B5034B0360044654
:103DD00000F03EFC204610BD30EA030010B504465A
:103DE000FFF7F2FF2046FFF7EDFF204610BD2DE95B
:103DF000F14F0E4619468346174699460A9CDDF850
:103E00002CA0DDF830800D9D00F034FB78B1002E41
:103E10002C602F7106DB3444A0450CBF062401241E
:103E2000AC711EE002361CD10123AB7119E0444590
:103E300004D15146584600F01DFB88B9DBF8080054
:103E400003680D95CDF83080CDF82CA00A94DC697C
:103E50003A464B463146A44601B0BDE8F04F6047B4
:103E60006F71002001B0BDE8F08F2DE9F041069E92
:103E7000964280460F4614461D4603D1194600F06F
:103E8000F9FA58B9D8F80800036806961E6A22465F
:103E90002B463946B446BDE8F04160470620BDE8F0
:103EA000F0812DE9F04104460D4616461F4600F00C
:103EB000E2FB48B9A06803689C6932463B46294644
:103EC000A446BDE8F0416047BDE8F08170B500232D
:103ED000A0EBC006C0EBC00210F8015B941905F01E
:103EE0007F02A24013432A06F4D40B6070BD30B5A4
:103EF00000231A4610F8014B04F07F0595402B4330
:103F0000250602F10702F5D41F2A06D8640642BF2F
:103F10004FF0FF3404FA02F213430B6030BD502817
:103F2000F7B505460F4614461E4605D1D01C20F0B5
:103F3000030050F8043B33E000F00F030C2B23D8B0
:103F4000DFE803F01A07121A1E222222220C161A88
:103F50001E0001A92046FFF7B9FF03E001A9204692
:103F6000FFF7C5FF019B11E0204630F8023B0DE052
:103F7000204630F9023B09E0204650F8043B05E0BA
:103F8000204650F8083B01E001F0B4FB43B105F0D6
:103F90007002102A18BF3C4623442A0648BF1B68FB
:103FA000336003B0F0BD08B50346FF2B08461CD0B4
:103FB00003F07003202B0ED003D8B3B1102B12D115
:103FC00013E0402B0BD0502B0FD0302B0BD1BDE882
:103FD000084001F08BBBBDE8084001F083BBBDE8A1
:103FE000084001F06FBB01F085FB002008BD70B5F3
:103FF0000C460146204615461E46FFF7D4FF3346C1
:104000002A4601462046BDE87040FFF788BF73B5D9
:104010000E461446054610B101F054FBFFE7206040
:104020003178FF2906F1010205D0231D2846FFF74C
:10403000DEFF024600E0606013782375FF2B02F17B
:10404000010007D01023237501A9FFF73FFF019B53
:10405000034400E00023E3600378637501A90130A5
:10406000FFF734FF019B0344236102B070BD1FB50D
:1040700003AB009300230A46194600F099FD03980C
:1040800005B05DF804FB00002DE9F04F91B000236E
:10409000049300F00303012B07460C4615460ED08F
:1040A00002D3022B02D0EFE0020717D529462046A3
:1040B00001F0F4FA08B109209FE108209DE100F029
:1040C000080202F0FF065AB9D1F8208028460D21D7
:1040D000FFF7CDFF804520D1062602E0012600E053
:1040E000022610AB07F0080743F82C4D009300237D
:1040F0003E430C221946284600F080FD062E17D1BB
:10410000D4F83080A76AD4F82C90B8F1000F0CBF17
:104110004FF0010A4FF0030A05E110AA334642F8B6
:104120002C4D3146009228460C2200F067FD0226F5
:10413000284601F0CDFA81460028B7D00AAA0146E8
:104140002846FFF764FF294680469DF83C00FFF7AC
:104150002AFF0F210C902846FFF789FF20F001006D
:10416000471E0E9B984580F03F81424606AB9DF866
:104170003D100020FFF73BFF07AB02469DF83D10C6
:104180000020FFF734FF08AB02469DF83D100020E9
:10419000FFF72DFF09A9FFF799FE069B0A9A134422
:1041A0009F42804602D2DDF83880DAE7079A13444E
:1041B0009F42D6D2089818B10B9B00EB030800E091
:1041C0008046099810B10E9F01383844B8F1000FAD
:1041D0003FF46CAF002800F00C8116F00803029346
:1041E00014D0472323704E2363705523A3704323B9
:1041F000E370462323714F2363715223A37100237D
:10420000E3714FF0000A6FF0030B1BE0E379012B21
:104210000CBF54F8203C04F158030493F1E7042741
:104220000D9A09AB07FB11220C99FFF778FE09994B
:10423000002900F0D5806CBB089F002F59D0039B4C
:104240003B44184607A9FFF752FE08A90390FFF761
:104250004EFE0799002949D025DD9DF83C00FF2836
:1042600014D000F00703042B0ED801A252F823F05B
:104270001F42000089420000914200001F420000DE
:10428000854200000827CBE701F034FA0027C7E792
:104290000227C5E704AB0022204600F025F90028DC
:1042A00040F09E80C8E70D9F4A1CB4B1029BA3B9A1
:1042B000049B06930BFB0272171F57F8041F41B1B2
:1042C00006AB00223944204600F00EF90028F4D055
:1042D000012181F00101C9B205E00BFB02F2B958DE
:1042E000B1FA81F149090029A6D079E04FF0010A1D
:1042F000A2E7BAF1000F3FF4D9AE4FF0020AF3077C
:1043000011D5BAF1020F3FF4D1AE0D212846049E1B
:10431000FFF7ADFE66622062A762C4F82C90C4F875
:104320003080062069E016F0080608D0BAF1010FC7
:1043300001D100F085F8002F24DA00F093F8BAF1EB
:10434000010F02D1204600F0F0F9002F1ADA0AAA74
:1043500049462846FFF75BFE29469DF83C00FFF7DB
:1043600022FE6FF003030D9A0C9007FB03331344F6
:1043700053F826200AB10136FAE70422A662E06269
:104380002263636310AB284643F81C4D009300235F
:104390001A46194600F032FC10AB012243F8207D8A
:1043A000009300231946284600F028FC0F212846D8
:1043B000FFF75DFE10AB00F0010040EA080043F893
:1043C000240D009300230F221946284600F016FC06
:1043D000BAF1020F02D1204600F0E4F807200CE009
:1043E000079F4FF0030A8AE74FF000084FF0010AD9
:1043F00001E04FF0020A002781E711B0BDE8F08F1D
:1044000010B5002814BF04460124204601F05CFBCF
:1044100030B900F0ADF908B901F06CF98047F4E764
:1044200010BDFFF7EDBF08B5804701F063F900004C
:10443000024B1868BFF35F8F704700BF98020020DF
:1044400008B5FFF7F5FFFFF7EEFF08B58047FFF768
:10445000F7FF0000024B1868BFF35F8F704700BF83
:104460009C02002008B5FFF7F5FFFFF7EEFF70474D
:1044700000207047814208B50ED0406803782A2B8F
:104480000CD049680B782A2B08BF013102F035F8AF
:10449000B0FA80F0400908BD012008BD002008BD29
:1044A0001EB400F09CF81EBC00F032FF0378472BCE
:1044B00017D143784E2B14D18378552B11D1C37863
:1044C000432B0ED10379432B0BD143792B2B08D1EE
:1044D00083792B2B05D1C07901288CBF00200120C6
:1044E00070470020704700002DE9F3411D46037816
:1044F000472B0E460246C17944D143784E2B41D119
:104500008378552B3ED1C378432B3BD10379462B7F
:1045100038D143794F2B35D18379522B32D10029B1
:1045200030D1012308460024019483B988B90129B8
:104530000ABF52F8203CA2F12003783B012908BFB2
:1045400052F8202C1C6818BF5832019202E0134C1C
:1045500000E0134C236820469B68984720B1019BDC
:104560001B680193022700E00127336801AAD3F8F2
:104570001080214601233046C04758B1019B2B6073
:10458000384607E01046FFF791FF80F00100C0B207
:104590000023C8E702B0BDE8F08100BF1CEB0300B8
:1045A00048EB030010B5044600F032F902462046FD
:1045B000A4F12001FFF77AFF50B154F8043C013315
:1045C000012B44F8043C08D1936844F8083C03E00C
:1045D00093680BB1FFF734FF9160012010BD10B557
:1045E00000F016F9826801460AB9FFF729FF02F1C7
:1045F00020042046FFF75AFF38B1D369013BD3614D
:1046000023B990698860936100E08860204610BDFE
:104610007FB5102302930368002415469E69009419
:104620006B468DF8044003941268B0479DF804303F
:1046300003F00603062B03BF009B2B6001202046DE
:1046400004B070BD009890420CBF06200120704756
:1046500010B5034B03600446FFF709FF204610BD69
:10466000A8EA030010B50446FFF7F2FF2046FFF763
:10467000A9FB204610BD38B515461C46FFF7FAFECB
:1046800020B10823E36006232560237138BD2DE99E
:10469000F041069E099C9846089B9E420746154697
:1046A00003D10799FFF7E6FE48B941463846FFF7C0
:1046B000E1FE28B1012326602571A37100E0657138
:1046C0000020BDE8F0812DE9F04105460C46164674
:1046D0001F46FFF7CFFE48B9032F07D8236832469D
:1046E000294620465B69BDE8F0411847BDE8F081E6
:1046F0000378472B17D143784E2B14D18378552B51
:1047000011D1C378432B0ED10379432B0BD14379BD
:104710002B2B08D183792B2B05D1C07901288CBF95
:104720000020012070470020704710B5044648B1B2
:1047300000F043F82046FFF7DBFF18B154F8140CE3
:10474000FFF771FEFFF77CFE38B50246FFF7D0FF9A
:1047500018B152F8184C002501E004460125104616
:1047600000F02BF80DB1FFF77DFE2046FFF76DFE40
:10477000024B1868BFF35F8F704700BF88050020A9
:104780000378472B17D143784E2B14D18378552BC0
:1047900011D1C378432B0ED10379432B0BD143792D
:1047A0002B2B08D183792B2B05D1C07901288CBF05
:1047B0000020012070470020704738B5054600F002
:1047C00027F8014602682846A5F12004FFF7D8FF24
:1047D00028B90AB1FFF734FE0C60144615E055F80D
:1047E0000C3C002BB4BFC3F10103013345F80C3C72
:1047F0004B68A24203F1FF334B6028461CBF45F8CB
:10480000102C0C606C6A00F0CBF9204638BD00001B
:10481000004870478C05002003685A004CBF43F0E5
:10482000004323F000431844704700BF61B32DE9F3
:10483000F84F01F1FF3A90460646D146002707EBB4
:10484000090404EBD4746410E50071190846FFF7FD
:10485000E3FFA245834605F10800304409D0FFF785
:10486000DBFFC34500F1FF3005D8404509D2671C86
:10487000E5E7C34505D9A74202D004F1FF39DEE7D9
:1048800000210846BDE8F88F08467047012807D088
:10489000022807D0044B00280CBF184600207047A0
:1048A0000248704702487047994F00009D4F000032
:1048B000A14F000030B5244B83B004468D1E7BB35E
:1048C00001A92846AFF3008020B301992A46FFF7DB
:1048D000ADFF0146F0B1FFF79FFF4B68A064012BCD
:1048E00012D0002B01F1040020DBFFF795FF00231D
:1048F000E06423650368002B1CDBFFF78DFF0023BA
:104900002061184603B030BD0023236105231846FB
:1049100003B030BD002323610923184603B030BD26
:104920000A490B48091AC9100191CFE70123E06435
:104930002365DFE7C3F30360FFF7A8FF00282061CA
:1049400014BF00230923DCE7000000005CF2030031
:104950004CEF03000368DA0710B5044606D49B0742
:1049600000F1480009D500F059FC2368590709D522
:104970001A070ED5DB0613D510BD00F047FC2368DF
:104980005907F5D404F1D00000F050FC23681A0751
:10499000F0D404F5A87000F051FC2368DB06EBD4DA
:1049A00004F5E870BDE8104000F08CBC03680BB162
:1049B000184470471846704709207047704700BF79
:1049C00070B504460D4608E02B6C63612A462369E6
:1049D000214601209847082808D1296C2046FFF776
:1049E00069FF06460028EFD000F084FE0728FBD1BF
:1049F0003046296CFFF7E2FF281D00F0FBFB00BFEB
:104A00002DE9F0470C1D064617460FCCADF5727D1B
:104A100003AD0FC50FCC0FC50FCC0FC594E80F0029
:104A200002ACD6F80C80D6F8189085E80F00002369
:104A30003046216C2360FFF73DFF002F054614BF71
:104A40000A2709277DB1A36B47F010018DE81002FA
:104A50003246636401203346C04778BB28460DF5D3
:104A6000727DBDE8F087236C73614FF4F0722146CC
:104A70007AA801F08DF833697AAA3146384698470A
:104A8000889B82468DE8100239466364324633467D
:104A90000120C04790B94FF4F0727AA9204601F086
:104AA00077F8BAF1080F06D1216C3046FFF702FF04
:104AB00009270546C6E7BAF1070F04D009200DF50E
:104AC000727DBDE8F0872846216CFFF777FF03A8C9
:104AD00000F090FB406C7047F0B5CB6B0B640E1D83
:104AE0000F4604460FCEF9B001AD0FC50FCE0FC56E
:104AF0000FCE0FC596E80F004FF0FF3685E80F0088
:104B0000009606E023696A4621469847082805462C
:104B100008D110992046FFF7CDFE0028F2D00920D9
:104B200079B0F0BD6846FFF715FF062DF7D139467D
:104B30002046FFF745FF00BF30B4DD6BC1608261E6
:104B400019461D64002230BC5AE700BF70B5C66824
:104B500043690B6426B10122FFF752FF00F0CAFD42
:104B600003690A4604460D46014602209847072875
:104B700007D0082803D129462046FFF721FF00F07F
:104B8000B9FD3046296CFFF719FF281D00F032FBF4
:104B9000C2681AB1CA6B0A64002231E79CE700BF01
:104BA000704700BF836813B1014601201847704762
:104BB00000B5042907D8DFE801F003090609090058
:104BC0000BB90F2A05D902205DF804FB01205DF81E
:104BD00004FB00EB820218465368019A13605DF8EB
:104BE00004FB00BF10B584B0002303AC0A46009458
:104BF0001946FFF7DDFF039804B010BD00B5042986
:104C000007D8DFE801F00309060909000BB90F2AEC
:104C100005D902205DF804FB01205DF804FB019931
:104C200000EB82020968516018465DF804FB00BF82
:104C300010B584B004AC002344F8042D0A46009457
:104C40001946FFF7DBFF04B010BD00BFF0B5D36B12
:104C50001364151D07460E460FCDADF50F7D17AC3D
:104C60000FC40FCD0FC40FCD0FC495E80F004FF048
:104C7000FF3584E80F00169510E016A8FFF7D8FF5F
:104C8000314616A8B84716AA694678B9049B082089
:104C90009847052804460AD0092807D0269968466F
:104CA000FFF708FE6A460C210028E6D0092416A862
:104CB000FFF750FE20460DF50F7DF0BD2DE9F04FBA
:104CC0000D46C96C8BB00C1D09680791914608947C
:104CD00000F0030B1E46002B64D109020323079149
:104CE0008DF825608DF824302B6DBBF1020F08BFC5
:104CF000AC6B13F0010343D100F00800C2B2039281
:104D000001932768002F3DD0022E47D02788B4F8A2
:104D100002800434AB6C28F0010A0F2148469A4403
:104D2000FFF760FF824537D827F001039A445045CA
:104D30002CBF002001204FEA480808F0020807F0C5
:104D4000010748EA0708B8F1010F41D038D3B8F19C
:104D5000020F1DD1236823F000420292BBF1000F25
:104D600079D130B10399002900F08180002A00F048
:104D7000A880002B79DB029B013304EB8304C0E79E
:104D800000230193022E40DDFFF716FE002842D0DB
:104D900009200BB0BDE8F08F0020CCE7D4F80480E8
:104DA0000834B7E7022B9FDC0B0CDAB209048DF84C
:104DB0002530022304EB820407918DF8243093E719
:104DC000BBF1000F02D0002840F0B080043498E717
:104DD000BBF1000F26D1B0B194E80C00991C4FEA4A
:104DE000D272D5D005F158010133069100F09480BC
:104DF000201DFFF7DBFD06AB01462846FFF774FBDD
:104E0000002840F0B88008347BE707A9484600F046
:104E1000F3FA0028BCD1019B002B5CD108200BB019
:104E2000BDE8F08F0D2148462F6AFFF7DBFE874271
:104E3000E9D1AB6A9C42E6D12046FFF7EDFC0F2199
:104E400002464846FFF7F4FE48462A460021FFF78F
:104E5000EFFE07209DE70D2148462F6AFFF7C2FEAF
:104E6000874248D02368002B85DA043483E7029B0D
:104E70003BB305F15803271DCDF810B0DDF80C80C9
:104E8000DDF808A00596A3461C4602E0B245B046F0
:104E900016D038460694FFF789FD06AB014600227E
:104EA0002846FFF721FB08F1010604370028EDD062
:104EB000029B059E43455C46DDF810B0D2D100E070
:104EC0005C4648460D21FFF78DFE069B2862AC62CA
:104ED0006B6206205DE70F214846FFF783FE0E2137
:104EE00002464846FFF7A4FE48462A4A0F21FFF72C
:104EF0009FFE07204DE7AB6A9C42B3D104220027F6
:104F0000A3180299A962EF622A636B632368BB420C
:104F10001FDB012301932EE748460D21FFF762FEB8
:104F20002862069B6B62AC62062032E72046FFF7E0
:104F300073FC04340646AC632846FFF733FB0028B5
:104F40003FF426AF484632460F21FFF771FE072097
:104F50001FE70846013004EB8000FFF75DFC0F21DE
:104F600002464846FFF764FE48462A463946FFF7A0
:104F70005FFE07200DE707460D214846FFF732FE8A
:104F8000022F2862CDD12B46069A43F82C2F6B6254
:104F9000C9E700BF4947000000238FE601238DE6E3
:104FA00002238BE6F0B50446C5B004290DD8DFE82E
:104FB00001F057030C310F00012B4FEA124695B256
:104FC00066D17219102A40F29F80022045B0F0BDD0
:104FD000002BFAD1102AF8D82368D80600F1C9802E
:104FE00022AE3046019200F077F9A06B019A0023BF
:104FF000012505FA03F1114203D0016846F8231098
:1050000004300133042BF4D1A063304600F05AF988
:105010000020DBE7032BD8D1150C97B2EB19102B2E
:10502000D3D823681E0700F1B88022AE30467F0037
:1050300000F026F906EBC5027B1EA56B57B1043ABA
:10504000294651F8040B42F8040F013B581CF8D1D3
:1050500005EB87053046A56300F0F0F80020B5E7C2
:10506000002BB2D1A56B97B2201D012606FA03F1E1
:10507000394203F1010302D0296801600435102B85
:1050800000F10400F2D112F400503BD1A5639DE77A
:10509000052B9AD17719202F97D80F2E65D92F4637
:1050A000002D48D12A460027002AA06B71DD00EBB5
:1050B000C202014644A800EBC6008C3851F8045BDC
:1050C00040F8045F9142F9D1084697B1102E32465C
:1050D00044A938BF102201EBC202A2F5C4727900C4
:1050E000043A00EB810150F8045B42F8045F81420E
:1050F000F9D1012B47D00F2EA16332D917B102A8E5
:1051000000F094F8002061E70F2E3FF65EAF002715
:105110002268D1070DD522F00101052B21600193F2
:10512000204652D022F0030240F8482B00F072F8DB
:10513000019B002F51D02268510736D4012B3ED05D
:105140000F2E06D822A8019300F06CF8019B002FC7
:10515000A8D002A8019300F06DF8019BC6F11002DF
:10516000A2E722A800F05AF8C8E7102FCFD9103FC5
:10517000CEE723F01003236004F5E870019200F0FD
:10518000ABF8019A2CE70431A16322A800F03EF8A5
:10519000B8E7002F9AD10146ABE723F0080323605C
:1051A00004F5A87000F06CF83FE7204622F00402F6
:1051B00040F8D02B019300F03DF8019BBEE722A8F8
:1051C000019300F027F8019BC8E741F0020140F885
:1051D000481B00F027F8019BABE7012B03D00F2EF3
:1051E0003FF660AFAEE722A8019300F013F8019BF1
:1051F00058E700BF00F1340191E838009C46A6460C
:105200004CF8045D90E8FF0FE54600BD90EC210BE3
:10521000704700BF80EC210B704700BF90EC200B63
:10522000704700BF80EC200B704700BFD0EC200B14
:10523000704700BFC0EC200B704700BFF0EC0201CC
:10524000F0EC0211F0EC0221F0EC0231F0EC024142
:10525000F0EC0251F0EC0261F0EC0271F0EC028132
:10526000F0EC0291F0EC02A1F0EC02B1F0EC02C122
:10527000F0EC02D1F0EC02E1F0EC02F1704700BF7B
:10528000E0EC0201E0EC0211E0EC0221E0EC023182
:10529000E0EC0241E0EC0251E0EC0261E0EC027172
:1052A000E0EC0281E0EC0291E0EC02A1E0EC02B162
:1052B000E0EC02C1E0EC02D1E0EC02E1E0EC02F152
:1052C000704700BFB0FC0181B0FC0191B0FC01A1AE
:1052D000B0FC01B1704700BFA0FC0181A0FC0191AE
:1052E000A0FC01A1A0FC01B1704700BFEC4600B5D5
:1052F0002DE900502DE9FF1F4FF000032DE90C00B0
:1053000001A9FFF7E9FBDDF840E012B0704700BFEC
:10531000EC4600B52DE900502DE9FF1F4FF00003CA
:105320002DE90C0001A9FFF711FCDDF840E012B0F7
:10533000704700BFEC4600B52DE900502DE9FF1F76
:105340004FF000032DE90C0001A9FFF721FCDDF867
:1053500040E012B0704700BFEC4600B52DE90050A8
:105360002DE9FF1F4FF000032DE90C0001ABFFF703
:10537000E3FBDDF840E012B0704700BFEC4600B53B
:105380002DE900502DE9FF1F4FF000032DE90C001F
:1053900001AAFFF75BFCDDF840E012B0704700BFE8
:1053A000037A1BB9437A43B9B02070475A1E036889
:1053B00002721A020260180E70474268013B10B474
:1053C000437213680321141D01721A0244600260C3
:1053D0005DF8044B180E704700B585B003AA002392
:1053E000009219460C22FFF7E3FB039805B05DF825
:1053F00004FB00BFF0E700BF2DE9F043064685B08F
:105400000D464FF000082846FFF7CAFFB0280446B3
:1054100000F0B48020F07F0313F0FF0320D000F0F1
:10542000F003802B7AD0902B35D0A02B48D0B02B16
:105430005CD0C02B00F0898000F0F803D02B0BD19A
:1054400000F00702013242F4002205230121304618
:10545000FFF7A8FD0028D6D0092005B0BDE8F083ED
:105460000DF10C0919468700CDF800900D22304649
:10547000FFF79EFBFFB2039BCDF800900437600658
:105480004CBFDF1BFF18002319460D22304603973F
:10549000FFF7B4FBB7E700F00D030D2BDCD003AF33
:1054A000002300F00F02194600973046FFF780FBFB
:1054B0000023009719460D223046FFF79FFBA2E715
:1054C000C2434FF47F6302F0070243FA02F201077E
:1054D00002EA03024FF0000348BF42F4804219463B
:1054E0003046FFF75FFD0028B6D18CE7B1284AD0DF
:1054F000B22853D0B32800F0818000F0FC03B42B15
:10550000AAD000F007020132012342F4002219461A
:105510003046FFF747FD00289ED174E72846FFF785
:105520003FFF24022043B0F5004F95D00401002333
:10553000A2B219463046FFF735FD00288CD114F48D
:10554000004F18BF4FF001085DE7C62862D0C7289A
:105550006CD000F0F803C02B7BD0C82800F09180FD
:10556000C9287FF479AF2846FFF71AFF020300F03D
:105570000F0002F470220130024366E7B8F1000F19
:105580006ED0002069E72846FFF70AFF0246002890
:105590003FF462AF10F0F003B9D05DE700230DF1E6
:1055A0000C090D221946CDF800903046FFF700FB9C
:1055B0002846FFF7F5FE02064FF002040CD5039BC8
:1055C00000F07F00A040034428460393FFF7E8FE65
:1055D000030604F10704F2D4039BCDF8009000F019
:1055E0007F0000FA04F203F5017400231444194605
:1055F0000D2230460394FFF701FB04E72846FFF72E
:10560000CFFE010300F00F0001F47021421C0123C2
:105610000A437CE72846FFF7C3FE010300F00F00B2
:1056200001F47021421C03230A4370E72846FFF768
:10563000B7FE024600283FF40FAF10F0F0037FF4EE
:105640000BAF04213046FFF7ADFC00287FF404AF18
:10565000D9E600F00F020132032342F4202256E77C
:1056600003AC43460E22414600943046FFF7A0FAB1
:105670000094304643460F224146FFF7BFFA4046AA
:10568000EBE62846FFF78CFE00F0F00200F00F0377
:105690001032013343EA0232D7E600BF10B5C36CC3
:1056A00084B05A6803208DF80C00DC798DF80D4029
:1056B00012020833084601A901920293FFF79CFEEB
:1056C00004B010BD08B5FFF795FE806C08BD00BFA3
:1056D00008B5FFF78FFEC36CD87903EB8000083064
:1056E00008BD00BF08B500F005F800BF08B5FFF71A
:1056F000F9FF00BF08B5062000F0A0FE012001F070
:1057000009FA0000014B1868704700BF0003002031
:105710008A892DE9F041054610070C4659D44B689B
:10572000002B02DC0B6C002B17DDE66AAEB102F435
:105730008052002392B22F682B600AB1606D15E091
:10574000216A01232846B047411C0FD12B686BB159
:105750001D2B01D0162B03D12F600020BDE8F08156
:10576000A38943F04003A381BDE8F081A3895A07D0
:1057700005D56368C01A636B0BB1236CC01A002394
:105780000246E66A216A2846B047431CA38906D12F
:1057900029681D293AD8214ACA40D60736D50022A1
:1057A0006260D9042269226004D5421C01D12B68B1
:1057B00003B96065616B2F600029CED004F144030A
:1057C000994202D0284600F0F7F900206063BDE856
:1057D000F0810F69002FC0D093070E6808BF4B6996
:1057E0000F6018BF0023C7EB06088B6002E0074478
:1057F000C0EB0808B8F1000FAFDD43463A46216A16
:10580000A66A2846B0470028F1DCA38943F040038C
:10581000A3814FF0FF30BDE8F08100BF01004020C0
:1058200038B50B6905460C46DBB118B183690BB975
:1058300000F060F80C4B9C4201D16C6808E00B4B07
:105840009C4201D1AC6803E0094B9C4208BFEC6864
:10585000B4F90C302BB121462846BDE83840FFF79B
:1058600057BF002038BD00BF50EB030070EB0300B2
:1058700090EB0300014900F0A9B800BF21580000D7
:10588000002310B504460360436083608181436652
:10589000C281036143618361194608225C3000F0D4
:1058A00082F9054B6362054BA362054BE362054B2E
:1058B0002462236310BD00BF75640000976400007C
:1058C000CF640000F364000070B568234D1E5D4393
:1058D0000E4605F1740100F0BDF9044640B1002107
:1058E00080E842000C30A06005F1680200F05BF92E
:1058F000204670BD836910B5044633BB8364C3641E
:105900000365124B124A1B688262984204BF01234E
:10591000836100F01FF86060204600F01BF8A06073
:10592000204600F017F80022E06004216068FFF7CD
:10593000A7FF01220921A068FFF7A2FF022212217E
:10594000E068FFF79DFF0123A36110BDB4EB0300E6
:1059500075580000F8B51C4B1E68B369074613B9AB
:105960003046FFF7C7FF4836B4687368013B04D47C
:10597000B4F90C507DB16834F8E733680BB1366880
:10598000F2E704213846FFF79FFF30600028F6D188
:105990000C233B60F8BD4FF6FF73E3810123A38125
:1059A00065662560A560656025616561A561082261
:1059B000294604F15C0000F0F6F86563A563A56470
:1059C000E5642046F8BD00BFB4EB03002DE9F843C1
:1059D0008046894600F14804002694B1A5686768AE
:1059E000013F0CD4AB89012B07D9B5F90E30013337
:1059F00003D029464046C84706436835F0E7246887
:105A0000EBE73046BDE8F88370B50E46B1F90E10ED
:105A1000002990B014461D4606DA00232B60B38996
:105A20001A060ED540230EE001AA00F077FE0028EA
:105A3000F3DB029A02F47042A2F500535A425A4133
:105A40002A604FF480630020236010B070BD000016
:105A50008B8973B59E0705460C4610D401AB6A4688
:105A6000FFF7D2FF00990646284600F0F3F868B920
:105A7000B4F90C309A0522D443F00203A38104F157
:105A80004703236023610123636118E00D4BAB6280
:105A9000A389206043F08003A381009B6361019B85
:105AA00020614BB1B4F90E10284600F049FE18B140
:105AB000A38943F00103A381A0893043A08102B0F0
:105AC00070BD00BF75580000024B0146186800F019
:105AD000C1B800BF00030020024B0146186800F067
