:100000000C040020FD0600006D07000075070000CD
:100010007D0700007D0700007D0700000000000054
:100020000000000000000000000000007D0700004C
:100030007D070000000000007D0700007D07000034
:100040007D0700007D0700007D0700007D070000A0
:100050007D0700007D0700007D0700007D07000090
:100060007D0700000000000000000000000000000C
:1000700000000000000000007D0700007D07000078
:100080007D0700007D0700007D0700008507000058
:100090007D0700007D0700007D0700007D07000050
:1000A0007D0700007D0700007D07000000000000C4
:1000B0007D0700007D0700007D07000000000000B4
:1000C000000000007D0700007D0700007D070000A4
:1000D0007D0700007D070000000000007D07000094
:1000E0000000000000000000000000007D0700008C
:1000F0007D070000000000007D0700007D07000074
:100100007D0700007D0700007D0700007D070000DF
:1001100000000000000000000000000000000000DF
:10012000000000007D0700007D0700007D07000043
:100130007D0700007D0700007D0700007D070000AF
:1001400000000000000000000000000000000000AF
:100150007D0700007D0700007D0700007D0700008F
:10016000000000000000000000000000000000008F
:10017000000000000000000000000000000000007F
:10018000000000000000000000000000000000006F
:10019000000000000000000000000000000000005F
:1001A000000000000000000000000000000000004F
:1001B0007D0700007D0700007D0700007D0700002F
:1001C0007D0700007D0700007D0700007D0700001F
:1001D0007D0700007D0700007D0700007D0700000F
:1001E0007D0700007D0700007D0700000000000083
:1001F00000000000000000000000000000000000FF
:1002000000000000000000000000000000000000EE
:1002100000000000000000000000000000000000DE
:1002200000000000000000000000000000000000CE
:1002300000000000000000000000000000000000BE
:1002400000000000000000000000000000000000AE
:10025000000000000000000000000000000000009E
:1002600000000000000000000000000010B5054C78
:10027000237833B9044B13B10448AFF30080012352
:10028000237010BDE002002000000000EC290000F7
:10029000084B10B51BB108490848AFF30080084867
:1002A000036803B910BD074B002BFBD0BDE810401D
:1002B000184700BF00000000E4020020EC29000005
:1002C000DC0200200000000080B582B000AF786042
:1002D0000B46FB707B6800221A707B6800225A7004
:1002E0007B6800229A707B6897F9032011461846B4
:1002F00000F0CAF87B6818460837BD4680BD00BFCD
:1003000080B582B000AF786039607B683968184684
:1003100000F05AFB00BF0837BD4680BD80B584B0F1
:1003200000AFF860B9607A6000F04CF87B68BA689A
:10033000F968044800F014F800F006F800BF103720
:10034000BD4680BDA427000080B500AF00F03AF89C
:10035000962000F04BF9962000F048F9F8E700BF2E
:100360000FB480B582B000AF07F114037B607968E9
:10037000386900F007F800BF0837BD46BDE8804087
:1003800004B0704780B483B000AF7860396000BFBC
:100390000C37BD465DF8047B704700BF80B483B066
:1003A00000AFEFF310837B607B6803F00103002B49
:1003B0000CBF01230023DBB218460C37BD465DF8A5
:1003C000047B704780B582B000AFFFF7E7FF0346BC
:1003D000002B14BF01230023DBB283F00103DBB247
:1003E000FB71FB7903F00103FB7172B60F4B1B68C5
:1003F000002B02D10E4AFB7913700C4B1B68002BAB
:100400000AD0FB7983F00103DBB2002B04D0362243
:1004100008490948FFF782FF044B1B680133034A70
:10042000136000BF0837BD4680BD00BFFC0200203E
:1004300000030020D8270000F027000080B584B01A
:1004400000AFF8607B600B46FB721346BB7297F9F6
:100450000B301946F86800F0FBF997F90B30B3F14F
:10046000FF3F0CD07968F86800F0AEFA0121F86817
:1004700000F07CFBBB7A1946F86800F0EDFB00BF8A
:100480001037BD4680BD00BF80B582B000AF786038
:100490000B46FB7097F9033000221946786800F08C
:1004A00005F800BF0837BD4680BD00BF80B584B0E9
:1004B00000AFF8600B467A60FB7297F90B107B680F
:1004C0000222F868FFF7BAFF00BF1037BD4680BDB3
:1004D00080B483B000AF786000BF0C37BD465DF8D4
:1004E000047B704780B483B000AF786000BF0C37E6
:1004F000BD465DF8047B704780B582B000AF786080
:100500007868FFF7E5FF00BF0837BD4680BD00BF34
:1005100080B582B000AF78607868FFF7E3FF00BF76
:100520000837BD4680BD00BF90B585B000AF78608C
:100530007B681B68DB6898477B685B685B68002B9F
:1005400004D17B681B689B6898472CE07B685B68DC
:100550005B681C687B681B685B6898470346E31A06
:10056000002B17DC7B685B685B68FB607B685B6803
:100570007A685268526892685A607B685B681B6848
:10058000002BD9D07B685B681B68FA6852681046FC
:100590009847D1E77B681B681B697A685268526884
:1005A0001268104698471437BD4690BD80B500AF1D
:1005B0000248FFF7B9FF00BF80BD00BF1828000048
:1005C00080B582B000AF7860D7ED017A9FED067AF2
:1005D00067EE877AFDEEE77A17EE900A00F016F8DC
:1005E00000BF0837BD4680BD0024744980B582B085
:1005F00000AF78607B684FF47A7202FB03F3184611
:1006000000F004F800BF0837BD4680BD80B584B057
:1006100000AF786000F0ECFDF86000BF00F0E8FD8E
:100620000246FB68D21A7B689A42F7D300BF1037A4
:10063000BD4680BD80B582B000AF78603960396852
:100640007868FFF75DFE7B6818460837BD4680BDB9
:1006500080B582B000AF3B1D28211846FFF734FE5D
:100660003B1D01211846FFF7E5FF0648FFF7A8FFED
:100670003B1D00211846FFF7DDFF0248FFF7A0FFF2
:10068000EEE700BF6F12833A80B487B000AF034635
:100690003960FB71184B9B687B61174B9B68002B83
:1006A0001BD17B69FB604FF000537B6100233B61F2
:1006B0000CE03B699B007A6913443A699200F9683F
:1006C0000A4412681A603B6901333B613B69992B0C
:1006D000EFD9094B4FF000529A6097F90730103369
:1006E0009B007A6913443A681A6000BF1C37BD4604
:1006F0005DF8047B704700BF00ED00E080B582B07C
:1007000000AF144B7B60144B3B6007E03B681A1D45
:100710003A607A68111D796012681A603B680F4A66
:100720009342F3D30F4810494FF000028842B8BFFC
:1007300040F8042BFADB0A4A094B1B6843F47003A8
:10074000136000F027F8FFF783FF00BF0837BD46AE
:1007500080BD00BF482B000068020020E00200209E
:1007600088ED00E0E00200202404002080B400AF07
:10077000FEE700BF80B400AFFEE700BF80B400AF6B
:10078000FEE700BF80B400AF00BFBD465DF8047B4C
:10079000704700BF80B483B000AF244B244A1A676F
:1007A000224B244A1A66214B234A1A661F4B234ABE
:1007B0001A6700237B6002E07B6801337B607B6803
:1007C000B3F57A7FF8D3194B1D4A1A66174B1D4AA9
:1007D0001A6700237B6002E07B6801337B607B68E3
:1007E000B3F57A7FF8D3114B174A1A6600BF0F4B47
:1007F0001B6D03F04003002BF9D00C4B134A1A6613
:100800000A4B4FF041421A6700237B6002E07B688D
:1008100001337B607B6842F20F729342F7D900BFCD
:100820000C37BD465DF8047B704700BF00E00F4009
:1008300010288007D13A8E07422D9E00002800C163
:10084000420D9E00000800C1420DDE004205DE00A0
:1008500080B584B000AF78600B46FB700023FB735B
:1008600097F90330184600F003FA0346BB7397F973
:100870000330184600F084FB0346FB737B68FA7B69
:100880009A70BB7B052B00F28F8001A252F823F0F7
:10089000A9080000D7080000010900002B0900008A
:1008A000550900007F0900007B6800225A70404A09
:1008B0003F4BD3F8083643F00103C2F808364FF037
:1008C00040214FF04023D3F81C357A6892781343C7
:1008D000C1F81C3568E07B6801225A70344A344BF9
:1008E000D3F8083643F00203C2F808363149314BD9
:1008F000D3F81C357A6892781343C1F81C3553E05D
:100900007B6802225A702A4A294BD3F8083643F0F2
:100910000403C2F808362849274BD3F81C357A68F7
:1009200092781343C1F81C353EE07B6803225A706D
:100930001F4A1F4BD3F8083643F00803C2F80836A5
:100940001E491E4BD3F81C357A6892781343C1F8C0
:100950001C3529E07B6804225A70154A144BD3F8E1
:10096000083643F01003C2F808361549144BD3F883
:100970001C357A6892781343C1F81C3514E07B6803
:1009800005225A700A4A0A4BD3F8083643F020036E
:10099000C2F808360B490B4BD3F81C357A689278AD
:1009A0001343C1F81C3500BF00BF1037BD4680BDE2
:1009B00000E00F4000500040006000400070004028
:1009C000004002400050024080B584B000AF786023
:1009D00039607B6893F90030B3F1FF3F04D13822CE
:1009E0005B495C48FFF79AFC7B685B78FB733B686C
:1009F000012B52D1FB7B052B00F2A68001A252F8FD
:100A000023F000BF1D0A0000350A0000490A00005B
:100A10005D0A0000710A0000850A00004FF04021C5
:100A20004FF04023D3F8FC337A6892781343C1F82F
:100A3000FC3389E04849484BD3F8FC337A68927814
:100A40001343C1F8FC337FE04449444BD3F8FC33F3
:100A50007A6892781343C1F8FC3375E04049404B03
:100A6000D3F8FC337A6892781343C1F8FC336BE017
:100A70003C493C4BD3F8FC337A6892781343C1F875
:100A8000FC3361E03849384BD3F8FC337A6892780C
:100A90001343C1F8FC3300BF56E0FB7B052B53D852
:100AA00001A252F823F000BFC10A0000DB0A0000D7
:100AB000F10A0000070B00001D0B0000330B0000C3
:100AC0004FF040214FF04023D3F8FC337A689278FE
:100AD000D2431340C1F8FC3336E01F491E4BD3F814
:100AE000FC337A689278D2431340C1F8FC332BE090
:100AF0001A491A4BD3F8FC337A689278D2431340E0
:100B0000C1F8FC3320E01649154BD3F8FC337A6862
:100B10009278D2431340C1F8FC3315E01149114BD0
:100B2000D3F8FC337A689278D2431340C1F8FC338F
:100B30000AE00D490C4BD3F8FC337A689278D24323
:100B40001340C1F8FC3300BF00BF1037BD4680BD65
:100B500020280000482800000050004000600040AD
:100B600000700040004002400050024080B584B058
:100B700000AF78600B46FB707B6893F90030B3F1EF
:100B8000FF3F04D170222D492D48FFF7C7FB7B683A
:100B90005B78FB73FB7B052B4CD801A252F823F04A
:100BA000B90B0000D10B0000E50B0000F90B0000B1
:100BB0000D0C0000210C00004FF040214FF04023AD
:100BC000D3F800347A6892781343C1F8003431E0E6
:100BD0001C491C4BD3F800347A6892781343C1F84F
:100BE000003427E01849184BD3F800347A6892781B
:100BF0001343C1F800341DE01449144BD3F80034FA
:100C00007A6892781343C1F8003413E01049104B0E
:100C1000D3F800347A6892781343C1F8003409E0BD
:100C20000C490C4BD3F800347A6892781343C1F81E
:100C3000003400BF00BF1037BD4680BD2028000033
:100C40004828000000500040006000400070004054
:100C5000004002400050024080B483B000AF786092
:100C60000B46FB7000BF0C37BD465DF8047B704738
:100C700080B485B000AF0346FB7197F90730002BB5
:100C80000CBF01230023DAB297F90730012B0CBF08
:100C900001230023DBB21343DBB21A4697F9073076
:100CA000022B0CBF01230023DBB2134397F907206B
:100CB000032A0CBF01220022D2B2134397F9072066
:100CC000042A0CBF01220022D2B2134397F9072055
:100CD000052A0CBF01220022D2B2134397F9072044
:100CE000062A0CBF01220022D2B2134397F9072033
:100CF000072A0CBF01220022D2B21343002B02D0DC
:100D00000023FB7334E197F90730082B0CBF012354
:100D10000023DAB297F90730092B0CBF0123002317
:100D2000DBB21343DBB21A4697F907300A2B0CBF2C
:100D300001230023DBB2134397F907200B2A0CBFD2
:100D400001220022D2B2134397F907200C2A0CBFCC
:100D500001220022D2B2134397F907200D2A0CBFBB
:100D600001220022D2B2134397F907200E2A0CBFAA
:100D700001220022D2B2134397F907200F2A0CBF99
:100D800001220022D2B21343002B02D00123FB73B5
:100D9000EEE097F90730102B0CBF01230023DAB2E5
:100DA00097F90730112B0CBF01230023DBB213434B
:100DB000DBB21A4697F90730122B0CBF0123002330
:100DC000DBB2134397F90720132A0CBF012200223C
:100DD000D2B2134397F90720142A0CBF0122002234
:100DE000D2B2134397F90720152A0CBF0122002223
:100DF000D2B2134397F90720162A0CBF0122002212
:100E0000D2B2134397F90720172A0CBF0122002200
:100E1000D2B21343002B02D00223FB73A8E097F950
:100E20000730182B0CBF01230023DAB297F90730E3
:100E3000192B0CBF01230023DBB21343DBB21A468C
:100E400097F907301A2B0CBF01230023DBB21343A1
:100E500097F907201B2A0CBF01220022D2B21343AC
:100E600097F907201C2A0CBF01220022D2B213439B
:100E700097F907201D2A0CBF01220022D2B213438A
:100E800097F907201E2A0CBF01220022D2B2134379
:100E900097F907201F2A0CBF01220022D2B2134368
:100EA000002B02D00323FB7362E097F90730202B5D
:100EB0000CBF01230023DAB297F90730212B0CBFB6
:100EC00001230023DBB21343DBB21A4697F9073044
:100ED000222B0CBF01230023DBB2134397F9072019
:100EE000232A0CBF01220022D2B2134397F9072014
:100EF000242A0CBF01220022D2B2134397F9072003
:100F0000252A0CBF01220022D2B21343002B02D0AB
:100F10000423FB732CE097F90730262B0CBF012329
:100F20000023DAB297F90730272B0CBF01230023E7
:100F3000DBB21343DBB21A4697F90730282B0CBFFC
:100F400001230023DBB2134397F90720292A0CBFA2
:100F500001220022D2B2134397F907202A2A0CBF9C
:100F600001220022D2B21343002B01D00523FB73D0
:100F7000FB7B18461437BD465DF8047B704700BF05
:100F800080B485B000AF0346FB7197F90730002BA2
:100F900013D097F90730082B0FD097F90730102B93
:100FA0000BD097F90730182B07D097F90730202B73
:100FB00003D097F90730262B02D10123FB73A7E05A
:100FC00097F90730012B13D097F90730092B0FD071
:100FD00097F90730112B0BD097F90730192B07D051
:100FE00097F90730212B03D097F90730272B02D12F
:100FF0000223FB738CE097F90730022B13D097F98B
:1010000007300A2B0FD097F90730122B0BD097F926
:1010100007301A2B07D097F90730222B03D097F906
:101020000730282B02D10423FB7371E097F90730B6
:10103000032B13D097F907300B2B0FD097F90730FC
:10104000132B0BD097F907301B2B07D097F90730DC
:10105000232B03D097F90730292B02D10823FB73E8
:1010600056E097F90730042B13D097F907300C2B73
:101070000FD097F90730142B0BD097F907301C2BA2
:1010800007D097F90730242B03D097F907302A2B84
:1010900002D11023FB733BE097F90730052B0FD0EB
:1010A00097F907300D2B0BD097F90730152B07D088
:1010B00097F907301D2B03D097F90730252B02D164
:1010C0002023FB7324E097F90730062B0BD097F908
:1010D00007300E2B07D097F90730162B03D097F95E
:1010E00007301E2B02D14023FB7311E097F9073024
:1010F000072B0BD097F907300F2B07D097F9073044
:10110000172B03D097F907301F2B01D18023FB73D6
:10111000FB7B18461437BD465DF8047B704700BF63
:1011200080B483B000AF0346FB71094997F90730DB
:101130005B09FA7902F01F02012000FA02F241F87D
:10114000232000BF0C37BD465DF8047B704700BF0D
:1011500000E100E080B483B000AF0346FB710949B1
:1011600097F907305B09FA7902F01F02012000FAB3
:1011700002F2603341F8232000BF0C37BD465DF812
:10118000047B704700E100E080B582B000AF00232F
:101190007B60134B1B78002B1ED1114B01221A7060
:1011A000104B0122C3F804260F4B0022DA600E4BCD
:1011B00000221A600C4B12225A600B4B01229A61DA
:1011C000094B0322DA60094B19461320FFF75CFA3A
:1011D0001320FFF7A5FF00E000BF0837BD4680BD24
:1011E0000C04002000E00F4000000340AD050000AB
:1011F00080B582B000AF0A4B1B78002B01D1FFF7FE
:10120000C3FF084B9B6C7B607B68074AA2FB0323F0
:101210009B097B607B6818460837BD4680BD00BFD0
:101220000C04002000000340CDCCCCCC80B400AF37
:10123000054A054B9B6923F00103936100BFBD463E
:101240005DF8047B704700BF0000034080B500AF2D
:10125000034B01225A621320FFF77CFF00BF80BDC1
:101260000000034080B483B000AF786006497A681C
:1012700013469B0013441B018B6200BF0C37BD4615
:101280005DF8047B704700BF0000034001F0BAB96D
:1012900010B5034B0360044600F072F9204610BD00
:1012A0006828000010B50446FFF7F2FF2046FFF75C
:1012B000EDFF204610BD2DE9F14F0E46194683463D
:1012C000174699460A9CDDF82CA0DDF830800D9D6C
:1012D00000F086F878B1002E2C602F7106DB3444C4
:1012E000A0450CBF06240124AC711EE002361CD1BF
:1012F0000123AB7119E0444504D15146584600F032
:101300006FF888B9DBF8080003680D95CDF83080D8
:10131000CDF82CA00A94DC693A464B463146A446E7
:1013200001B0BDE8F04F60476F71002001B0BDE82B
:10133000F08F2DE9F041069E964280460F461446F6
:101340001D4603D1194600F04BF858B9D8F80800EB
:10135000036806961E6A22462B463946B446BDE807
:10136000F04160470620BDE8F0812DE9F0410446D8
:101370000D4616461F4600F016F948B9A0680368E6
:101380009C6932463B462946A446BDE8F041604789
:10139000BDE8F08108B5804701F02CF9024B1868D0
:1013A000BFF35F8F704700BF6802002008B5FFF7EA
:1013B000F5FFFFF7EFFF08B58047FFF7F7FF0000E5
:1013C000024B1868BFF35F8F704700BF6C020020AC
:1013D00008B5FFF7F5FFFFF7EEFF704700207047F5
:1013E000814208B50ED0406803782A2B0CD049689A
:1013F0000B782A2B08BF013101F0ACF9B0FA80F06C
:10140000400908BD012008BD002008BD0378472B16
:1014100017D143784E2B14D18378552B11D1C37833
:10142000432B0ED10379432B0BD143792B2B08D1BE
:1014300083792B2B05D1C07901288CBF0020012096
:1014400070470020704700002DE9F3411D460378E6
:10145000472B0E460246C17944D143784E2B41D1E9
:101460008378552B3ED1C378432B3BD10379462B50
:1014700038D143794F2B35D18379522B32D1002982
:1014800030D1012308460024019483B988B9012989
:101490000ABF52F8203CA2F12003783B012908BF83
:1014A00052F8202C1C6818BF5832019202E0134CED
:1014B00000E0134C236820469B68984720B1019BAD
:1014C0001B680193022700E00127336801AAD3F8C3
:1014D0001080214601233046C04758B1019B2B6044
:1014E000384607E01046FFF791FF80F00100C0B2D8
:1014F0000023C8E702B0BDE8F08100BF5429000016
:101500008029000010B5044600F002F9024620468A
:10151000A4F12001FFF77AFF50B154F8043C0133E5
:10152000012B44F8043C08D1936844F8083C03E0DC
:1015300093680BB1FFF73AFF9160012010BD7FB5B2
:10154000102302930368002415469E6900946B469D
:101550008DF8044003941268B0479DF8043003F0FE
:101560000603062B03BF009B2B600120204604B01E
:1015700070BD009890420CBF06200120704700000B
:1015800010B5034B03600446FFF727FF204610BD4C
:10159000E028000010B50446FFF7F2FF2046FFF7F1
:1015A00075FE204610BD38B515461C46FFF718FFDE
:1015B00020B10823E36006232560237138BD2DE99F
:1015C000F041069E099C9846089B9E420746154698
:1015D00003D10799FFF704FF48B941463846FFF7A2
:1015E000FFFE28B1012326602571A37100E065711B
:1015F0000020BDE8F0812DE9F04105460C46164675
:101600001F46FFF7EDFE48B9032F07D8236832467F
:10161000294620465B69BDE8F0411847BDE8F081E6
:101620000378472B17D143784E2B14D18378552B51
:1016300011D1C378432B0ED10379432B0BD14379BE
:101640002B2B08D183792B2B05D1C07901288CBF96
:101650000020012070470020704738B50246FFF790
:10166000DFFF18B152F8184C002501E004460125AF
:10167000104600F023F80DB1FFF7AAFE2046FFF751
:101680009AFE0378472B17D143784E2B14D18378D9
:10169000552B11D1C378432B0ED10379432B0BD19A
:1016A00043792B2B08D183792B2B05D1C0790128C5
:1016B0008CBF0020012070470020704738B50546D8
:1016C00000F026F8014602682846A5F12004FFF73D
:1016D000D8FF28B90AB1FFF769FE0C60144615E07F
:1016E00055F80C3C002BB4BFC3F10103013345F89E
:1016F0000C3C4B68A24203F1FF334B6028461CBFF1
:1017000045F8102C0C606C6A00F0CAF9204638BD10
:10171000004870471004002003685A004CBF43F093
:10172000004323F000431844704700BF61B32DE924
:10173000F84F01F1FF3A90460646D146002707EBE5
:10174000090404EBD4746410E50071190846FFF72E
:10175000E3FFA245834605F10800304409D0FFF7B6
:10176000DBFFC34500F1FF3005D8404509D2671CB7
:10177000E5E7C34505D9A74202D004F1FF39DEE70A
:1017800000210846BDE8F88F08467047012807D0B9
:10179000022807D0044B00280CBF184600207047D1
:1017A0000248704702487047991E00009D1E0000C5
:1017B000A11E000030B5244B83B004468D1E7BB3C0
:1017C00001A92846AFF3008020B301992A46FFF70C
:1017D000ADFF0146F0B1FFF79FFF4B68A064012BFE
:1017E00012D0002B01F1040020DBFFF795FF00234E
:1017F000E06423650368002B1CDBFFF78DFF0023EB
:101800002061184603B030BD00232361052318462C
:1018100003B030BD002323610923184603B030BD57
:101820000A490B48091AC9100191CFE70123E06466
:101830002365DFE7C3F30360FFF7A8FF00282061FB
:1018400014BF00230923DCE700000000482B000040
:10185000502A00000368DA0710B5044606D49B0737
:1018600000F1480009D500F059FC2368590709D553
:101870001A070ED5DB0613D510BD00F047FC236810
:101880005907F5D404F1D00000F050FC23681A0782
:10189000F0D404F5A87000F051FC2368DB06EBD40B
:1018A00004F5E870BDE8104000F08CBC03680BB193
:1018B000184470471846704709207047704700BFAA
:1018C00070B504460D4608E02B6C63612A46236917
:1018D000214601209847082808D1296C2046FFF7A7
:1018E00069FF06460028EFD000F084FE0728FBD1F0
:1018F0003046296CFFF7E2FF281D00F0FBFB00BF1C
:101900002DE9F0470C1D064617460FCCADF5727D4C
:1019100003AD0FC50FCC0FC50FCC0FC594E80F005A
:1019200002ACD6F80C80D6F8189085E80F0000239A
:101930003046216C2360FFF73DFF002F054614BFA2
:101940000A2709277DB1A36B47F010018DE810022B
:101950003246636401203346C04778BB28460DF504
:10196000727DBDE8F087236C73614FF4F0722146FD
:101970007AA800F04FFE33697AAA31463846984774
:10198000889B82468DE810023946636432463346AE
:101990000120C04790B94FF4F0727AA9204600F0B8
:1019A00039FEBAF1080F06D1216C3046FFF702FF6D
:1019B00009270546C6E7BAF1070F04D009200DF53F
:1019C000727DBDE8F0872846216CFFF777FF03A8FA
:1019D00000F090FB406C7047F0B5CB6B0B640E1DB4
:1019E0000F4604460FCEF9B001AD0FC50FCE0FC59F
:1019F0000FCE0FC596E80F004FF0FF3685E80F00B9
:101A0000009606E023696A4621469847082805465D
:101A100008D110992046FFF7CDFE0028F2D009200A
:101A200079B0F0BD6846FFF715FF062DF7D13946AE
:101A30002046FFF745FF00BF30B4DD6BC160826117
:101A400019461D64002230BC5AE700BF70B5C66855
:101A500043690B6426B10122FFF752FF00F0CAFD73
:101A600003690A4604460D460146022098470728A6
:101A700007D0082803D129462046FFF721FF00F0B0
:101A8000B9FD3046296CFFF719FF281D00F032FB25
:101A9000C2681AB1CA6B0A64002231E79CE700BF32
:101AA000704700BF836813B1014601201847704793
:101AB00000B5042907D8DFE801F003090609090089
:101AC0000BB90F2A05D902205DF804FB01205DF84F
:101AD00004FB00EB820218465368019A13605DF81C
:101AE00004FB00BF10B584B0002303AC0A46009489
:101AF0001946FFF7DDFF039804B010BD00B50429B7
:101B000007D8DFE801F00309060909000BB90F2A1D
:101B100005D902205DF804FB01205DF804FB019962
:101B200000EB82020968516018465DF804FB00BFB3
:101B300010B584B004AC002344F8042D0A46009488
:101B40001946FFF7DBFF04B010BD00BFF0B5D36B43
:101B50001364151D07460E460FCDADF50F7D17AC6E
:101B60000FC40FCD0FC40FCD0FC495E80F004FF079
:101B7000FF3584E80F00169510E016A8FFF7D8FF90
:101B8000314616A8B84716AA694678B9049B0820BA
:101B90009847052804460AD0092807D026996846A0
:101BA000FFF708FE6A460C210028E6D0092416A893
:101BB000FFF750FE20460DF50F7DF0BD2DE9F04FEB
:101BC0000D46C96C8BB00C1D0968079191460894AD
:101BD00000F0030B1E46002B64D10902032307917A
:101BE0008DF825608DF824302B6DBBF1020F08BFF6
:101BF000AC6B13F0010343D100F00800C2B20392B2
:101C000001932768002F3DD0022E47D02788B4F8D3
:101C100002800434AB6C28F0010A0F2148469A4434
:101C2000FFF760FF824537D827F001039A445045FB
:101C30002CBF002001204FEA480808F0020807F0F6
:101C4000010748EA0708B8F1010F41D038D3B8F1CD
:101C5000020F1DD1236823F000420292BBF1000F56
:101C600079D130B10399002900F08180002A00F079
:101C7000A880002B79DB029B013304EB8304C0E7CF
:101C800000230193022E40DDFFF716FE002842D00C
:101C900009200BB0BDE8F08F0020CCE7D4F8048019
:101CA0000834B7E7022B9FDC0B0CDAB209048DF87D
:101CB0002530022304EB820407918DF8243093E74A
:101CC000BBF1000F02D0002840F0B080043498E748
:101CD000BBF1000F26D1B0B194E80C00991C4FEA7B
:101CE000D272D5D005F158010133069100F09480ED
:101CF000201DFFF7DBFD06AB01462846FFF7A4FBDE
:101D0000002840F0B88008347BE707A9484600F077
:101D1000F3FA0028BCD1019B002B5CD108200BB04A
:101D2000BDE8F08F0D2148462F6AFFF7DBFE8742A2
:101D3000E9D1AB6A9C42E6D12046FFF7EDFC0F21CA
:101D400002464846FFF7F4FE48462A460021FFF7C0
:101D5000EFFE07209DE70D2148462F6AFFF7C2FEE0
:101D6000874248D02368002B85DA043483E7029B3E
:101D70003BB305F15803271DCDF810B0DDF80C80FA
:101D8000DDF808A00596A3461C4602E0B245B04621
:101D900016D038460694FFF789FD06AB01460022AF
:101DA0002846FFF751FB08F1010604370028EDD063
:101DB000029B059E43455C46DDF810B0D2D100E0A1
:101DC0005C4648460D21FFF78DFE069B2862AC62FB
:101DD0006B6206205DE70F214846FFF783FE0E2168
:101DE00002464846FFF7A4FE48462A4A0F21FFF75D
:101DF0009FFE07204DE7AB6A9C42B3D10422002727
:101E0000A3180299A962EF622A636B632368BB423D
:101E10001FDB012301932EE748460D21FFF762FEE9
:101E20002862069B6B62AC62062032E72046FFF711
:101E300073FC04340646AC632846FFF763FB0028B6
:101E40003FF426AF484632460F21FFF771FE0720C8
:101E50001FE70846013004EB8000FFF75DFC0F210F
:101E600002464846FFF764FE48462A463946FFF7D1
:101E70005FFE07200DE707460D214846FFF732FEBB
:101E8000022F2862CDD12B46069A43F82C2F6B6285
:101E9000C9E700BF5B16000000238FE601238DE633
:101EA00002238BE6F0B50446C5B004290DD8DFE85F
:101EB00001F057030C310F00012B4FEA124695B287
:101EC00066D17219102A40F29F80022045B0F0BD01
:101ED000002BFAD1102AF8D82368D80600F1C9805F
:101EE00022AE3046019200F077F9A06B019A0023F0
:101EF000012505FA03F1114203D0016846F82310C9
:101F000004300133042BF4D1A063304600F05AF9B9
:101F10000020DBE7032BD8D1150C97B2EB19102B5F
:101F2000D3D823681E0700F1B88022AE30467F0068
:101F300000F026F906EBC5027B1EA56B57B1043AEB
:101F4000294651F8040B42F8040F013B581CF8D104
:101F500005EB87053046A56300F0F0F80020B5E7F3
:101F6000002BB2D1A56B97B2201D012606FA03F112
:101F7000394203F1010302D0296801600435102BB6
:101F800000F10400F2D112F400503BD1A5639DE7AB
:101F9000052B9AD17719202F97D80F2E65D92F4668
:101FA000002D48D12A460027002AA06B71DD00EBE6
:101FB000C202014644A800EBC6008C3851F8045B0D
:101FC00040F8045F9142F9D1084697B1102E32468D
:101FD00044A938BF102201EBC202A2F5C4727900F5
:101FE000043A00EB810150F8045B42F8045F81423F
:101FF000F9D1012B47D00F2EA16332D917B102A816
:1020000000F094F8002061E70F2E3FF65EAF002746
:102010002268D1070DD522F00101052B2160019323
:10202000204652D022F0030240F8482B00F072F80C
:10203000019B002F51D02268510736D4012B3ED08E
:102040000F2E06D822A8019300F06CF8019B002FF8
:10205000A8D002A8019300F06DF8019BC6F1100210
:10206000A2E722A800F05AF8C8E7102FCFD9103FF6
:10207000CEE723F01003236004F5E870019200F02E
:10208000ABF8019A2CE70431A16322A800F03EF8D6
:10209000B8E7002F9AD10146ABE723F0080323608D
:1020A00004F5A87000F06CF83FE7204622F0040227
:1020B00040F8D02B019300F03DF8019BBEE722A829
:1020C000019300F027F8019BC8E741F0020140F8B6
:1020D000481B00F027F8019BABE7012B03D00F2E24
:1020E0003FF660AFAEE722A8019300F013F8019B22
:1020F00058E700BF00F1340191E838009C46A6463D
:102100004CF8045D90E8FF0FE54600BD90EC210B14
:10211000704700BF80EC210B704700BF90EC200B94
:10212000704700BF80EC200B704700BFD0EC200B45
:10213000704700BFC0EC200B704700BFF0EC0201FD
:10214000F0EC0211F0EC0221F0EC0231F0EC024173
:10215000F0EC0251F0EC0261F0EC0271F0EC028163
:10216000F0EC0291F0EC02A1F0EC02B1F0EC02C153
:10217000F0EC02D1F0EC02E1F0EC02F1704700BFAC
:10218000E0EC0201E0EC0211E0EC0221E0EC0231B3
:10219000E0EC0241E0EC0251E0EC0261E0EC0271A3
:1021A000E0EC0281E0EC0291E0EC02A1E0EC02B193
:1021B000E0EC02C1E0EC02D1E0EC02E1E0EC02F183
:1021C000704700BFB0FC0181B0FC0191B0FC01A1DF
:1021D000B0FC01B1704700BFA0FC0181A0FC0191DF
:1021E000A0FC01A1A0FC01B1704700BFEC4600B506
:1021F0002DE900502DE9FF1F4FF000032DE90C00E1
:1022000001A9FFF7E9FBDDF840E012B0704700BF1D
:10221000EC4600B52DE900502DE9FF1F4FF00003FB
:102220002DE90C0001A9FFF711FCDDF840E012B028
:10223000704700BFEC4600B52DE900502DE9FF1FA7
:102240004FF000032DE90C0001A9FFF721FCDDF898
:1022500040E012B0704700BFEC4600B52DE90050D9
:102260002DE9FF1F4FF000032DE90C0001ABFFF734
:10227000E3FBDDF840E012B0704700BFEC4600B56C
:102280002DE900502DE9FF1F4FF000032DE90C0050
:1022900001AAFFF75BFCDDF840E012B0704700BF19
:1022A000037A1BB9437A43B9B02070475A1E0368BA
:1022B00002721A020260180E70474268013B10B4A5
:1022C000437213680321141D01721A0244600260F4
:1022D0005DF8044B180E704700B585B003AA0023C3
:1022E000009219460C22FFF7E3FB039805B05DF856
:1022F00004FB00BFF0E700BF2DE9F043064685B0C0
:102300000D464FF000082846FFF7CAFFB0280446E4
:1023100000F0B48020F07F0313F0FF0320D000F022
:10232000F003802B7AD0902B35D0A02B48D0B02B47
:102330005CD0C02B00F0898000F0F803D02B0BD1CB
:1023400000F00702013242F4002205230121304649
:10235000FFF7A8FD0028D6D0092005B0BDE8F0831E
:102360000DF10C0919468700CDF800900D2230467A
:10237000FFF79EFBFFB2039BCDF800900437600689
:102380004CBFDF1BFF18002319460D223046039770
:10239000FFF7B4FBB7E700F00D030D2BDCD003AF64
:1023A000002300F00F02194600973046FFF780FB2C
:1023B0000023009719460D223046FFF79FFBA2E746
:1023C000C2434FF47F6302F0070243FA02F20107AF
:1023D00002EA03024FF0000348BF42F4804219466C
:1023E0003046FFF75FFD0028B6D18CE7B1284AD010
:1023F000B22853D0B32800F0818000F0FC03B42B46
:10240000AAD000F007020132012342F4002219464B
:102410003046FFF747FD00289ED174E72846FFF7B6
:102420003FFF24022043B0F5004F95D00401002364
:10243000A2B219463046FFF735FD00288CD114F4BE
:10244000004F18BF4FF001085DE7C62862D0C728CB
:102450006CD000F0F803C02B7BD0C82800F091802E
:10246000C9287FF479AF2846FFF71AFF020300F06E
:102470000F0002F470220130024366E7B8F1000F4A
:102480006ED0002069E72846FFF70AFF02460028C1
:102490003FF462AF10F0F003B9D05DE700230DF117
:1024A0000C090D221946CDF800903046FFF700FBCD
:1024B0002846FFF7F5FE02064FF002040CD5039BF9
:1024C00000F07F00A040034428460393FFF7E8FE96
:1024D000030604F10704F2D4039BCDF8009000F04A
:1024E0007F0000FA04F203F5017400231444194636
:1024F0000D2230460394FFF701FB04E72846FFF75F
:10250000CFFE010300F00F0001F47021421C0123F3
:102510000A437CE72846FFF7C3FE010300F00F00E3
:1025200001F47021421C03230A4370E72846FFF799
:10253000B7FE024600283FF40FAF10F0F0037FF41F
:102540000BAF04213046FFF7ADFC00287FF404AF49
:10255000D9E600F00F020132032342F4202256E7AD
:1025600003AC43460E22414600943046FFF7A0FAE2
:102570000094304643460F224146FFF7BFFA4046DB
:10258000EBE62846FFF78CFE00F0F00200F00F03A8
:102590001032013343EA0232D7E600BF10B5C36CF4
:1025A00084B05A6803208DF80C00DC798DF80D405A
:1025B00012020833084601A901920293FFF79CFE1C
:1025C00004B010BD08B5FFF795FE806C08BD00BFD4
:1025D00008B5FFF78FFEC36CD87903EB8000083095
:1025E00008BD00BF08B500F005F800BF08B5FFF74B
:1025F000F9FF00BF08B5062000F090F8012000F0B8
:10260000C3F80000024B0146186800F00FB800BF85
:10261000D002002010B5431E0A44914204D011F8A4
:10262000014B03F8014FF8E710BD000038B505462F
:10263000002946D051F8043C0C1F002BB8BFE41809
:10264000FDF75AFF1F4A1368114613B963601460FF
:1026500032E0A3420ED92268A018834204BF186852
:102660005B68636004BF121822600C6024E0A24221
:1026700003D813465A68002AF9D118681918A142DC
:102680000BD12168014458188242196014D1106896
:1026900052685A60014419600EE002D90C232B6085
:1026A0000AE021686018824204BF106852686260C4
:1026B00004BF091821605C602846BDE83840FDF77A
:1026C00027BF38BD1C0400201F2938B504460D461D
:1026D00004D9162303604FF0FF3038BD426C12B1AD
:1026E00052F821304BB9204600F032F82A46014614
:1026F0002046BDE8384000F019B8012B0CD0591C19
:1027000003D116230360012038BD0024284642F877
:1027100025409847204638BD002038BD024B014671
:102720001868FFF7D1BF00BFD002002038B5074CB2
:102730000023054608461146236000F01DF8431C9F
:1027400002D1236803B12B6038BD00BF20040020F4
:1027500000F00AB810F8012B11F8013B012A28BF3C
:102760009A42F7D0D01A7047024B58221A604FF0A5
:10277000FF30704720040020024B58221A604FF0AF
:10278000FF30704720040020FEE700BFF8B500BF0F
:10279000F8BC08BC9E467047F8B500BFF8BC08BC42
:1027A0009E4670476D6265642061737365727461E3
:1027B00074696F6E206661696C65643A2025732CBC
:1027C0002066696C653A2025732C206C696E652043
:1027D0002564200A000000002E2E5C636F6D6D6F73
:1027E0006E5C637269746963616C2E630000000043
:1027F000696E74657272757074735F646973616217
:102800006C65640089110000F11100002D120000B8
:102810004D1200006512000004280000040300208F
:102820002E2E5C7461726765745C68616C5C5441E7
:10283000524745545F54697661435C6770696F5FC6
:102840006170692E630000006F626A2D3E70696ED0
:1028500020213D202850696E4E616D65294E430050
:10286000000000008C28000091120000A51200005A
:10287000DD130000DD130000F71500003F15000018
:102880006B130000B712000033130000682800002B
:1028900098280000042900004E31305F5F6378788B
:1028A000616269763132305F5F73695F636C617357
:1028B000735F747970655F696E666F450000000034
:1028C000E0280000C8280000537439747970655FEF
:1028D000696E666F0000000000000000042900001F
:1028E0008115000095150000DD130000DD130000C8
:1028F000F71500003F150000A7150000BF150000E8
:10290000731500006828000010290000C02800008E
:102910004E31305F5F637878616269763131375F5D
:102920005F636C6173735F747970655F696E666F06
:1029300045004E31305F5F6378786162697631318E
:10294000355F5F666F726365645F756E77696E642D
:1029500045000000E0280000322900004E31305FC1
:102960005F637878616269763131395F5F666F7273
:102970006569676E5F657863657074696F6E450041
:10298000E02800005C2900000000000000000000BA
:102990000000000000000000000000000000000037
:1029A0000000000000000000000000000000000027
:1029B0000000000000000000000000000000000017
:1029C0000000000000000000000000000000000007
:1029D00000000000000000000000000000000000F7
:1029E00000000000000000004300000000000000A4
:1029F00001970181B0B008840000000001970181B7
:102A0000B0B008840000000001970181B0B00884D4
:102A10000000000001970181B0B0088400000000B0
:102A200001970181B0B00884000000000197018186
:102A3000B0B008840000000008B10181B0B000848B
:102A40000000000008B10181B0B000840000000067
:102A500078D8FF7F9CFFFF7FA8D8FF7FA0FFFF7F74
:102A6000BCD8FF7F0100000090DAFF7F9CFFFF7F52
:102A7000A0DAFF7FA0FFFF7FB0DAFF7F0100000038
:102A8000B4DBFF7F9CFFFF7FC8DBFF7FA0FFFF7FE2
:102A9000F8DBFF7F010000001CEDFF7FB0A9028082
:102AA000B4EDFF7FB0B0A88004EEFF7F010000000E
:102AB00010EEFF7FB0B0AA8048EEFF7FAE71B2800B
:102AC00014EFFF7F0100000010EFFF7FAB3F388065
:102AD00068EFFF7F0100000074EFFF7FB0B0AA80B5
:102AE000B0EFFF7F0100000064F0FF7FAB0EB2800B
:102AF000CCF0FF7FB0AF0A80A0F3FF7F01000000A1
:102B0000A4F3FF7FAB3F0480ECF5FF7F01000000E2
:102B1000C8F7FF7F00840480DCF7FF7F010000001E
:102B2000D8F7FF7FB0AD048074FAFF7FB0A80380B0
:102B300094FAFF7F04FFFF7F98FAFF7F08FFFF7F73
:082B4000A4FAFF7F0100000070
:102B4800F5250000AD1300000000000088290000F2
:102B5800A8290000C82900000000000000000000AB
:102B68000000000000000000E8290000000000004C
:102B7800000000000000000000000000000000004D
:102B8800000000000000000000000000000000003D
:102B9800000000000000000000000000000000002D
:102BA80000000000000000007002002091020000F8
:082BB8006D02000000000000A6
:00000001FF
